:020000040800F2
:1000000000800120C5140008211400082B140008EA
:1000100031140008371400083D14000800000000E7
:100020000000000000000000000000004314000871
:1000300051140008000000005F1400086D1400084F
:1000400015150008151500081515000815150008E8
:1000500015150008151500081515000815150008D8
:1000600015150008151500081515000815150008C8
:1000700015150008151500081515000815150008B8
:1000800015150008151500081515000800000000DA
:10009000000000000000000000000000151500082E
:1000A0001515000815150008151500081515000888
:1000B0001515000815150008151500081515000878
:1000C0001515000815150008151500081515000868
:1000D000151500081515000815150008000000008A
:1000E000151500081515000815150008000000007A
:1000F00000000000000000000000000015150008CE
:100100000000000015150008151500081515000859
:1001100000000000000000000000000000000000DF
:100120001515000815150008151500081515000807
:10013000151500080000000000000000000000008D
:10014000000000000000000000000000151500087D
:1001500015150008151500081515000815150008D7
:10016000151500081515000800000000000000002B
:10017000000000000000000000000000000000007F
:10018000000000001515000800000000000000003D
:040190001515000839
:1001940010B5054C237833B9044B13B10448AFF3BD
:1001A40000800123237010BD240000200000000003
:1001B4009068000808B5034B1BB103490348AFF32B
:1001C400008008BD0000000028000020906800089E
:1001D400034613F8012B002AFBD1181A0138704783
:1001E40053B94AB9002908BF00281CBF4FF0FF319A
:1001F4004FF0FF3000F074B9ADF1080C6DE904CE96
:1002040000F006F8DDF804E0DDE9022304B07047ED
:100214002DE9F047089D04468E46002B4DD18A42B5
:10022400944669D9B2FA82F252B101FA02F3C2F1E8
:10023400200120FA01F10CFA02FC41EA030E944079
:100244004FEA1C48210CBEFBF8F61FFA8CF708FB9A
:1002540016E341EA034306FB07F199420AD91CEB72
:10026400030306F1FF3080F01F81994240F21C81A4
:10027400023E63445B1AA4B2B3FBF8F008FB1033EC
:1002840044EA034400FB07F7A7420AD91CEB040421
:1002940000F1FF3380F00A81A74240F207816444F1
:1002A400023840EA0640E41B00261DB1D440002376
:1002B400C5E900433146BDE8F0878B4209D9002DDA
:1002C40000F0EF800026C5E9000130463146BDE864
:1002D400F087B3FA83F6002E4AD18B4202D38242CE
:1002E40000F2F980841A61EB030301209E46002D7D
:1002F400E0D0C5E9004EDDE702B9FFDEB2FA82F2D2
:10030400002A40F09280A1EB0C014FEA1C471FFA2F
:100314008CFE0126200CB1FBF7F307FB131140EA16
:1003240001410EFB03F0884208D91CEB010103F1E3
:10033400FF3802D2884200F2CB804346091AA4B2A5
:10034400B1FBF7F007FB101144EA01440EFB00FE79
:10035400A64508D91CEB040400F1FF3102D2A645DE
:1003640000F2BB800846A4EB0E0440EA03409CE77D
:10037400C6F12007B34022FA07FC4CEA030C20FA2A
:1003840007F401FA06F31C43F9404FEA1C4900FA4A
:1003940006F3B1FBF9F8200C1FFA8CFE09FB1811C7
:1003A40040EA014108FB0EF0884202FA06F20BD93A
:1003B4001CEB010108F1FF3A80F08880884240F28A
:1003C4008580A8F102086144091AA4B2B1FBF9F0CE
:1003D40009FB101144EA014100FB0EFE8E4508D9C9
:1003E4001CEB010100F1FF346CD28E456AD902384E
:1003F400614440EA0840A0FB0294A1EB0E01A14233
:10040400C846A64656D353D05DB1B3EB080261EBA0
:100414000E0101FA07F722FA06F3F1401F43C5E97A
:10042400007100263146BDE8F087C2F12003D840B0
:100434000CFA02FC21FA03F3914001434FEA1C47F2
:100444001FFA8CFEB3FBF7F007FB10360B0C43EAE4
:10045400064300FB0EF69E4204FA02F408D91CEB94
:10046400030300F1FF382FD29E422DD90238634492
:100474009B1B89B2B3FBF7F607FB163341EA034132
:1004840006FB0EF38B4208D91CEB010106F1FF3881
:1004940016D28B4214D9023E6144C91A46EA004678
:1004A40038E72E46284605E70646E3E61846F8E60A
:1004B4004B45A9D2B9EB020864EB0C0E0138A3E753
:1004C4004646EAE7204694E74046D1E7D0467BE734
:1004D400023B614432E7304609E76444023842E7AC
:1004E400704700BF80B500AF00224FF400410248BE
:1004F40001F010FB00BF80BD0000024080B500AFDA
:1005040001224FF40041024801F004FB00BF80BD0A
:100514000000024080B582B000AF0346FB7100BF0B
:10052400084802F0F7FA0346012BF9D1F91D4FF4FC
:100534007A730122034802F00FF800BF0837BD4662
:1005440080BD00BF4400002080B584B002AFFF230B
:10055400FB710023BB7100BF094802F0DBFA0346BC
:10056400012BF9D1BA1DF91D4FF47A7300930123BD
:10057400034802F02DF9BB7918460837BD4680BD03
:100584004400002080B582B000AF7860FFF7DCFF44
:1005940003461A467B681A7000BF0837BD4680BD03
:1005A40080B582B000AF0B4B32221A70FFF7CCFF3C
:1005B400FFF7CAFF0346FB71FB79FF2B04D0054B01
:1005C4001B78DBB2002BF3D1FB7918460837BD4604
:1005D40080BD00BF4E25002080B586B000AF41F637
:1005E400FF737B61FFF78AFF00233B6105E0FF2077
:1005F400FFF790FF3B6901333B613B69092BF6DD53
:10060400FFF770FF40233B7100237B710023BB7114
:100614000023FB7100233B7295237B720023FB6054
:1006240009E03A1DFB6813441B781846FFF772FF74
:10063400FB680133FB60FB68052BF2DD02E07B699C
:10064400013B7B61FFF780FF0346012B02D07B69EE
:10065400002BF4D1FFF752FFFF20FFF75BFF034BA2
:1006640001221A7000BF1837BD4680BD410000202A
:1006740080B400AF034B00221A7000BFBD465DF882
:10068400047B70474100002080B400AF034B1B780B
:100694001846BD465DF8047B704700BF410000204A
:1006A40080B584B000AF78603960174B0A221A70A5
:1006B400FFF74AFF0346FB73FB7BFF2B04D1124B6E
:1006C4001B78DBB2002BF3D1FB7BFE2B01D0002384
:1006D40016E07B685A1C7A601846FFF753FF7B6864
:1006E4005A1C7A601846FFF74DFF3B68023B3B609B
:1006F4003B68002BEDD1FFF727FFFFF725FF012310
:1007040018461037BD4680BD4D25002080B584B005
:1007140000AF78600B46FB7000237B73FFF740FF4C
:100724000346FF2B01D0002340E0FB781846FFF777
:10073400F1FEFB78FD2B31D00023BB737B685A1C80
:100744007A601B781846FFF7E5FE7B685A1C7A60CE
:100754001B781846FFF7DEFEBB7B013BBB73BB7BFC
:10076400002BEBD1FFF7F0FEFFF7EEFE0BE0FFF7F7
:10077400EBFE0346FB73FB7B03F01F03052B06D044
:100784007B7B01337B737B7B402BF0D900E000BF84
:1007940000BFFFF7D9FE0346002BFAD0FB7B03F022
:1007A4001F03052B01D1012300E000231846103755
:1007B400BD4680BD80B584B000AF03463960FB718F
:1007C400FFF7EEFE0346FF2B01D0FF2340E0FB7949
:1007D4001846FFF79FFE3B681B0EDBB21846FFF777
:1007E40099FE3B681B0CDBB21846FFF793FE3B688F
:1007F4001B0ADBB21846FFF78DFE3B68DBB21846D6
:10080400FFF788FE0023FB73FB79402B01D195236E
:10081400FB73FB79482B01D18723FB73FB7B1846C1
:10082400FFF778FEFB794C2B01D1FFF78DFE0A23ED
:10083400BB73FFF789FE03467B7397F90D30002BDA
:1008440005DABB7B013BBB73BB7B002BF1D17B7B0C
:1008540018461037BD4680BD90B585B000AF03463D
:10086400FB71FB79002B01D00123D5E06C4B1B7885
:10087400DBB203F00203002B03D0694B1B78DBB21D
:10088400CAE0FFF7A9FEFFF72DFE0023BB7300218A
:100894004020FFF78FFF0346012B40F0A580614BFA
:1008A40064221A704FF4D5714820FFF783FF034682
:1008B400012B58D10023FB730CE0FC7BFFF744FEB3
:1008C40003461A4604F110033B4403F8082CFB7B4F
:1008D4000133FB73FB7B032BEFD9BB7A012B40F075
:1008E4008380FB7AAA2B7FD100217720FFF762FF58
:1008F4000346012B07D84FF080416920FFF75AFFC8
:100904000346002B05D0474B1B78DBB2002BEBD101
:1009140000E000BF434B1B78DBB2002B64D0002106
:100924007A20FFF747FF0346002B5DD10023FB73BA
:100934000CE0FC7BFFF708FE03461A4604F11003A3
:100944003B4403F8082CFB7B0133FB73FB7B032B39
:10095400EFD93B7A03F04003002B01D0062300E0DB
:100964000223BB7340E000217720FFF723FF0346F7
:10097400012B08D800216920FFF71CFF0346012B37
:1009840001D8022300E00123BB73BB7B022B0ED1F1
:1009940000217720FFF70EFF0346012B0ED800211C
:1009A4006920FFF707FF0346002B07D10DE0002164
:1009B4004120FFF7FFFE0346002B05D0194B1B789F
:1009C400DBB2002BE1D100E000BF164B1B78DBB299
:1009D400002B07D04FF400715020FFF7EBFE0346C5
:1009E400002B01D00023BB730F4ABB7B1370FFF7AE
:1009F40085FDFFF7A9FDBB7B002B08D0084B1B78B6
:100A0400DBB223F00103DAB2054B1A7001E0FFF701
:100A14002FFE034B1B78DBB218461437BD4690BD3E
:100A2400000000204D2500204000002080B483B049
:100A340000AF0346FB71FB79002B01D0012302E0D8
:100A4400044B1B78DBB218460C37BD465DF8047BBB
:100A5400704700BF0000002080B584B000AFB960CB
:100A64007A603B600346FB73FB7B002B02D13B683F
:100A7400002B01D1042351E02A4B1B78DBB203F095
:100A84000103002B01D0032348E0274B1B7803F01C
:100A94000403002B02D17B685B027B60FFF722FD1D
:100AA4003B68012B11D179685120FFF783FE03467F
:100AB400002B29D14FF40071B868FFF7F1FD03460C
:100AC400002B21D000233B601EE079685220FFF701
:100AD40071FE0346002B17D14FF40071B868FFF77D
:100AE400DFFD0346002B0AD0BB6803F50073BB602F
:100AF4003B68013B3B603B68002BEDD100E000BF4D
:100B040000214C20FFF756FEFFF7F8FCFFF71CFD11
:100B14003B68002B14BF01230023DBB218461037B7
:100B2400BD4680BD000000204000002080B584B098
:100B340000AFB9607A603B600346FB73FB7B002B1C
:100B440002D13B68002B01D104236BE0374B1B78A7
:100B5400DBB203F00103002B01D0032362E0334B2B
:100B64001B78DBB203F00403002B01D0022359E00D
:100B74002F4B1B7803F00403002B02D17B685B022C
:100B84007B60FFF7AFFC3B68012B10D179685820DC
:100B9400FFF710FE0346002B3AD1FE21B868FFF799
:100BA400B5FD0346002B33D000233B6030E0204BDF
:100BB4001B7803F00203002B07D000217720FFF7F6
:100BC400F9FD39685720FFF7F5FD79685920FFF7DB
:100BD400F1FD0346002B1BD1FC21B868FFF796FDFD
:100BE4000346002B0AD0BB6803F50073BB603B6867
:100BF400013B3B603B68002BEED100E000BFFD21D0
:100C04000020FFF783FD0346002B01D101233B6045
:100C1400FFF774FCFFF798FC3B68002B14BF01231B
:100C24000023DBB218461037BD4680BD000000200B
:100C34004000002090B58BB000AF03463A60FB71D2
:100C44000B46BB713B683B62FB79002B01D004234C
:100C54001BE1012387F82730BB79052B29D13B6A97
:100C64001B78022B17D0022B1FDC002B02D0012B88
:100C74000BD01AE0FFF708FD0346002B01D0FFF765
:100C8400F7FC002387F82730FDE0FFF7A5FC0023DD
:100C940087F82730F7E03B6A5C1CFFF7F5FC034656
:100CA4002370002387F82730EDE0042387F82730EA
:100CB400E9E0784B1B78DBB203F00103002B01D091
:100CC4000323E2E0FFF70EFCBB790D2B00F2CC808E
:100CD40001A252F823F000BFD70D0008150D00083B
:100CE400C70D00086D0E00086D0E00086D0E00089B
:100CF4006D0E00086D0E00086D0E00086D0E0008E4
:100D04006D0E0008E90D00080D0E0008310E0008F4
:100D140000214920FFF74EFD0346002B40F0A88038
:100D240007F10C0310211846FFF7BAFC0346002B09
:100D340000F09E803B7B9B09DBB2012B0ED17B7DB7
:100D44009AB23B7D9BB21B029BB213449BB201330C
:100D5400FB83FB8B9A023B681A602EE07B7C03F0DA
:100D64000F03DAB2BB7DDB09DBB21344DAB27B7D5D
:100D74005B00DBB203F00603DBB21344DBB20233E5
:100D840087F826303B7D9B09DBB29AB2FB7C9BB291
:100D94009B009BB213449AB2BB7C9B029BB203F4AC
:100DA40040639BB213449BB20133FB83FA8B97F8E5
:100DB4002630093B9A403B681A60002387F82730A5
:100DC40056E03B684FF400721A80002387F82730FE
:100DD40055E0FFF7E5FB0346FF2B4BD1002387F8D3
:100DE400273047E000214920FFF7E4FC0346002BAD
:100DF40042D11021386AFFF753FC0346002B3BD045
:100E0400002387F8273037E000214A20FFF7D2FC7F
:100E14000346002B32D11021386AFFF741FC034608
:100E2400002B2BD0002387F8273027E000217A20DD
:100E3400FFF7C0FC0346002B16D1002387F82630A9
:100E44000BE03C6A631C3B62FFF77EFB03462370A6
:100E540097F82630013387F8263097F82630032B8D
:100E6400EFD9002387F82730042387F8273006E0DA
:100E740000BF04E000BF02E000BF00E000BFFFF7D6
:100E84003DFBFFF761FB97F8273018462C37BD462A
:100E940090BD00BF0000002080B584B000AF786032
:100EA4007868FFF795F90346FB73FB7B9AB24FF41E
:100EB400FA637968034801F052FF00BF1037BD465A
:100EC40080BD00BF9C00002080B582B000AF00F060
:100ED40021FB00F0AFF800F06DF900F00BF900F021
:100EE4003FF902F0B1FA00224249434804F0FAFC07
:100EF40003461A46414B1A70404B1B78002B03D013
:100F04003F48FFF7C9FF02E03E48FFF7C5FF132241
:100F14003D493E4804F02CFD03461A46374B1A70EF
:100F2400364B1B78002B03D03948FFF7B5FF02E09E
:100F34003848FFF7B1FF3549374805F034FB03461D
:100F4400DAB22E4B1A702D4B1B78002B03D033488A
:100F5400FFF7A2FF02E03248FFF79EFF2B4805F09F
:100F640044FA03461A46254B1A70244B1B78002B6F
:100F740003D02C48FFF790FF02E02B48FFF78CFFCB
:100F84002A48FFF789FF01221F49204804F0F0FC9A
:100F940003461A46194B1A70184B1B78002B03D0C2
:100FA4001B48FFF779FF02E01A48FFF775FF322369
:100FB400FB71FB79154A19461D4805F040FA1C4897
:100FC400FFF76AFF114805F010FA03461A460B4B67
:100FD4001A700A4B1B78002B03D01248FFF75CFFF2
:100FE40002E01148FFF758FF4FF47A7000F004FB59
:100FF400FAE700BFA8680008E000002048210020AC
:10100400AC680008C8680008E868000818110020E7
:10101400F468000808690008246900085869000891
:101024007469000890690008AC690008C869000880
:101034004C21002080B594B000AF07F1200330228A
:101044000021184605F01AFC07F10C0300221A606F
:101054005A609A60DA601A610023BB60234B1B6CF0
:10106400224A43F080531364204B1B6C03F08053DB
:10107400BB60BB6800237B601D4B1B6823F44043AB
:101084001B4A43F400431360194B1B6803F44043A9
:101094007B607B6801233B624FF480337B620023D7
:1010A400BB6307F12003184600F04EFD0346002BF6
:1010B40001D000F0D1F80F23FB6001233B61002332
:1010C4007B610023BB610023FB6107F10C0300215A
:1010D400184600F0B1FF0346002B01D000F0BCF825
:1010E40001F090F800BF5037BD4680BD0038024083
:1010F4000070004080B500AF174B184A1A60164BB9
:101104004FF482725A60144B00229A60124B0022F0
:10111400DA60114B00221A610F4B00225A610E4B08
:101124004FF400729A610C4B0022DA610A4B0022E0
:101134001A62094B00225A62074B00229A62064B3C
:101144000A22DA62044801F07EF90346002B01D03A
:1011540000F082F800BF80BD44000020003C004045
:1011640080B500AF114B124A1A60104B4FF416525F
:101174005A600E4B00229A600C4B0022DA600B4B33
:1011840000221A61094B0C225A61084B00229A6111
:10119400064B0022DA61054801F094FD0346002B5A
:1011A40001D000F059F800BF80BD00BF9C000020B2
:1011B4000010014080B588B000AF07F10C03002295
:1011C4001A605A609A60DA601A610023BB60204B8F
:1011D4001B6B1F4A43F0800313631D4B1B6B03F00F
:1011E4008003BB60BB6800237B60194B1B6B184AF0
:1011F40043F001031363164B1B6B03F001037B6085
:101204007B6800233B60124B1B6B114A43F00203C3
:1012140013630F4B1B6B03F002033B603B6800221C
:101224004FF400410B4800F075FC4FF40043FB60A1
:1012340001233B6100237B610023BB6107F10C03A5
:101244001946044800F0E2FA00BF2037BD4680BDCD
:10125400003802400000024080B400AF72B600BF04
:10126400FEE7000080B483B000AF00237B60104B26
:101274005B6C0F4A43F4804353640D4B5B6C03F483
:1012840080437B607B6800233B60094B1B6C084AEE
:1012940043F080531364064B1B6C03F080533B6094
:1012A4003B6800BF0C37BD465DF8047B704700BF48
:1012B4000038024080B58AB000AF786007F11403AB
:1012C40000221A605A609A60DA601A617B681B68AF
:1012D400194A93422BD100233B61184B1B6C174ACC
:1012E40043F400431364154B1B6C03F400433B614C
:1012F4003B690023FB60114B1B6B104A43F0020354
:1013040013630E4B1B6B03F00203FB60FB68382373
:101314007B610223BB610023FB6103233B62062341
:101324007B6207F114031946054800F06FFA00BF09
:101334002837BD4680BD00BF003C00400038024055
:101344000004024080B58AB000AF786007F114034E
:1013540000221A605A609A60DA601A617B681B681E
:10136400194A93422CD100233B61184B5B6C174AFA
:1013740043F010035364154B5B6C03F010033B61A3
:101384003B690023FB60114B1B6B104A43F00103C4
:1013940013630E4B1B6B03F00103FB60FB684FF4FC
:1013A400C0637B610223BB610023FB6103233B62B7
:1013B40007237B6207F114031946054800F026FA57
:1013C40000BF2837BD4680BD0010014000380240F0
:1013D4000000024080B400AF0E4B1B78DBB2002B40
:1013E40006D00C4B1B78DBB2013BDAB2094B1A7006
:1013F400094B1B78DBB2002B06D0074B1B78DBB202
:10140400013BDAB2044B1A7000BFBD465DF8047BA1
:10141400704700BF4D2500204E25002080B500AF49
:1014240000F0F6FFFEE780B400AFFEE780B400AF43
:10143400FEE780B400AFFEE780B400AFFEE780B4FF
:1014440000AF00BFBD465DF8047B704780B400AFB9
:1014540000BFBD465DF8047B704780B400AF00BF99
:10146400BD465DF8047B704780B500AF0A4B1B781E
:10147400DBB20133DAB2084B1A70074B1B78DBB2CC
:10148400092B04D9044B00221A70FFF7A3FF00F0C4
:1014940093F800BF80BD00BF4C25002080B400AF8E
:1014A400064BD3F88830054A43F47003C2F88830F9
:1014B40000BFBD465DF8047B704700BF00ED00E04F
:1014C400DFF834D00D480E490E4A002302E0D45808
:1014D400C4500433C4188C42F9D30B4A0B4C002378
:1014E40001E013600432A242FBD3FFF7D7FF05F0FB
:1014F400A1F9FFF7E9FC70470080012000000020FB
:1015040024000020946E000824000020902700206E
:10151400FEE7000080B500AF0E4B1B680D4A43F494
:10152400007313600B4B1B680A4A43F48063136017
:10153400084B1B68074A43F480731360032000F0D0
:1015440031F90F2000F008F8FFF78CFE002318464D
:1015540080BD00BF003C024080B582B000AF78601F
:10156400124B1A68124B1B7819464FF47A73B3FB6B
:10157400F1F3B2FBF3F3184600F03BF90346002BFA
:1015840001D001230EE07B680F2B0AD80022796872
:101594004FF0FF3000F011F9064A7B681360002316
:1015A40000E0012318460837BD4680BD0400002032
:1015B4000C0000200800002080B400AF064B1B780C
:1015C4001A46064B1B681344044A136000BFBD4609
:1015D4005DF8047B704700BF0C00002050250020FC
:1015E40080B400AF034B1B681846BD465DF8047B0E
:1015F400704700BF5025002080B584B000AF7860EC
:10160400FFF7EEFFB8607B68FB60FB68B3F1FF3F58
:1016140005D00A4B1B781A46FB681344FB6000BFD5
:10162400FFF7DEFF0246BB68D31AFA689A42F7D87E
:1016340000BF00BF1037BD4680BD00BF0C000020B6
:1016440080B485B000AF78607B6803F00703FB606B
:101654000C4BDB68BB60BA684FF6FF031340BB60FA
:10166400FB681A02BB68134343F0BF6343F40033BF
:10167400BB60044ABB68D36000BF1437BD465DF845
:10168400047B704700ED00E080B400AF044BDB68DE
:101694001B0A03F007031846BD465DF8047B704738
:1016A40000ED00E080B483B000AF03463960FB7105
:1016B40097F90730002B0ADB3B68DAB20C4997F93B
:1016C40007301201D2B20B4483F800230AE03B68CE
:1016D400DAB20849FB7903F00F03043B1201D2B2DA
:1016E4000B441A7600BF0C37BD465DF8047B704787
:1016F40000E100E000ED00E080B489B000AFF860E4
:10170400B9607A60FB6803F00703FB61FB69C3F10E
:101714000703042B28BF0423BB61FB690433062B96
:1017240002D9FB69033B00E000237B614FF0FF32E9
:10173400BB6902FA03F3DA43BB681A407B699A4037
:101744004FF0FF317B6901FA03F3D9437B680B4007
:10175400134318462437BD465DF8047B70470000E8
:1017640080B582B000AF78607B68013BB3F1807FC5
:1017740001D301230FE00A4A7B68013B53600F2128
:101784004FF0FF30FFF78EFF054B00229A60044BA9
:1017940007221A60002318460837BD4680BD00BFE3
:1017A40010E000E080B582B000AF78607868FFF7A1
:1017B40047FF00BF0837BD4680BD80B586B000AF87
:1017C4000346B9607A60FB7300237B61FFF75CFF1B
:1017D40078617A68B9687869FFF78EFF024697F9ED
:1017E4000F3011461846FFF75DFF00BF1837BD469E
:1017F40080BD80B582B000AF78607868FFF7B0FF35
:10180400034618460837BD4680BD000080B489B041
:1018140000AF7860396000237B6100233B610023C3
:10182400BB610023FB6159E10122FB6902FA03F366
:101834007B613B681B687A6913403B613A697B6949
:101844009A4240F048813B685B6803F00303012B34
:1018540005D03B685B6803F00303022B30D17B683F
:101864009B68BB61FB695B00032202FA03F3DB4361
:10187400BA691340BB613B68DA68FB695B0002FA32
:1018840003F3BA691343BB617B68BA699A607B68E6
:101894005B68BB610122FB6902FA03F3DB43BA69AB
:1018A4001340BB613B685B681B0903F00102FB69E1
:1018B40002FA03F3BA691343BB617B68BA695A60DD
:1018C4003B685B6803F00303032B17D07B68DB687A
:1018D400BB61FB695B00032202FA03F3DB43BA69D1
:1018E4001340BB613B689A68FB695B0002FA03F32F
:1018F400BA691343BB617B68BA69DA603B685B68A9
:1019040003F00303022B23D1FB69DA087B68083256
:1019140053F82230BB61FB6903F007039B000F22DD
:1019240002FA03F3DB43BA691340BB613B681A69EB
:10193400FB6903F007039B0002FA03F3BA6913433C
:10194400BB61FB69DA087B680832B96943F8221085
:101954007B681B68BB61FB695B00032202FA03F32B
:10196400DB43BA691340BB613B685B6803F0030265
:10197400FB695B0002FA03F3BA691343BB617B683A
:10198400BA691A603B685B6803F44033002B00F0CB
:10199400A2800023FB60574B5B6C564A43F48043A0
:1019A4005364544B5B6C03F48043FB60FB68524A02
:1019B400FB699B08023352F82330BB61FB6903F0D7
:1019C40003039B000F2202FA03F3DB43BA691340BB
:1019D400BB617B68494A934219D07B68484A934269
:1019E40013D07B68474A93420DD07B68464A9342A2
:1019F40007D07B68454A934201D1042308E00723BA
:101A040006E0032304E0022302E0012300E00023B4
:101A1400FA6902F0030292009340BA691343BB616E
:101A24003549FB699B080233BA6941F82320384BD6
:101A34009B68BB613B69DB43BA691340BB613B688C
:101A44005B6803F48013002B03D0BA693B6913432A
:101A5400BB612F4ABB6993602D4BDB68BB613B695B
:101A6400DB43BA691340BB613B685B6803F4001352
:101A7400002B03D0BA693B691343BB61244ABB6999
:101A8400D360234B5B68BB613B69DB43BA6913409A
:101A9400BB613B685B6803F40033002B03D0BA6975
:101AA4003B691343BB611A4ABB695360184B1B68FB
:101AB400BB613B69DB43BA691340BB613B685B684C
:101AC40003F48033002B03D0BA693B691343BB6131
:101AD4000F4ABB691360FB690133FB61FB690F2B80
:101AE4007FF6A2AE00BF00BF2437BD465DF8047B7D
:101AF400704700BF00380240003801400000024037
:101B04000004024000080240000C024000100240A1
:101B1400003C014080B483B000AF78600B467B800A
:101B240013467B707B78002B03D07A887B689A619C
:101B340003E07B881A047B689A6100BF0C37BD46BA
:101B44005DF8047B7047000080B586B000AF786014
:101B54007B68002B01D1012367E27B681B6803F0DB
:101B64000103002B75D0884B9B6803F00C03042BF6
:101B74000CD0854B9B6803F00C03082B12D1824BCD
:101B84005B6803F48003B3F5800F0BD17E4B1B68B5
:101B940003F40033002B5BD07B685B68002B57D1C8
:101BA400012342E27B685B68B3F5803F06D1764B44
:101BB4001B68754A43F4803313601DE07B685B68DF
:101BC400B3F5A02F0CD1704B1B686F4A43F48023EC
:101BD40013606D4B1B686C4A43F4803313600BE055
:101BE400694B1B68684A23F480331360664B1B6897
:101BF400654A23F4802313607B685B68002B13D051
:101C0400FFF7EEFC386108E0FFF7EAFC02463B69A7
:101C1400D31A642B01D9032307E25B4B1B6803F43B
:101C24000033002BF0D014E0FFF7DAFC386108E051
:101C3400FFF7D6FC02463B69D31A642B01D9032370
:101C4400F3E1514B1B6803F40033002BF0D100E0A7
:101C540000BF7B681B6803F00203002B63D04A4B70
:101C64009B6803F00C03002B0BD0474B9B6803F0DD
:101C74000C03082B1CD1444B5B6803F48003002B3A
:101C840016D1414B1B6803F00203002B05D07B687F
:101C9400DB68012B01D00123C7E13B4B1B6823F018
:101CA400F8027B681B69DB00374913430B603AE099
:101CB4007B68DB68002B20D0344B01221A60FFF7CD
:101CC4008FFC386108E0FFF78BFC02463B69D31AAE
:101CD400022B01D90323A8E12B4B1B6803F0020359
:101CE400002BF0D0284B1B6823F0F8027B681B699B
:101CF400DB00254913430B6015E0244B00221A60D6
:101D0400FFF76EFC386108E0FFF76AFC02463B69A6
:101D1400D31A022B01D9032387E11B4B1B6803F061
:101D24000203002BF0D17B681B6803F00803002B2F
:101D340036D07B685B69002B16D0154B01221A60E4
:101D4400FFF74EFC386108E0FFF74AFC02463B69A6
:101D5400D31A022B01D9032367E10B4B5B6F03F00A
:101D64000203002BF0D01BE0094B00221A60FFF79E
:101D740037FC38610EE0FFF733FC02463B69D31AA7
:101D8400022B07D9032350E10038024000004742E8
:101D9400800E4742884B5B6F03F00203002BEAD1AD
:101DA4007B681B6803F00403002B00F0978000237A
:101DB400FB75814B1B6C03F08053002B0FD1002368
:101DC400BB607D4B1B6C7C4A43F0805313647A4B9D
:101DD4001B6C03F08053BB60BB680123FB75774B1E
:101DE4001B6803F48073002B18D1744B1B68734A6F
:101DF40043F480731360FFF7F3FB386108E0FFF7E7
:101E0400EFFB02463B69D31A022B01D903230CE1F1
:101E14006A4B1B6803F48073002BF0D07B689B68CB
:101E2400012B06D1644B1B6F634A43F00103136714
:101E34001CE07B689B68052B0CD15F4B1B6F5E4AD3
:101E440043F0040313675C4B1B6F5B4A43F00103CD
:101E540013670BE0584B1B6F574A23F001031367BA
:101E6400554B1B6F544A23F0040313677B689B682C
:101E7400002B15D0FFF7B4FB38610AE0FFF7B0FB85
:101E840002463B69D31A41F28832934201D90323B3
:101E9400CBE0494B1B6F03F00203002BEED014E0A0
:101EA400FFF79EFB38610AE0FFF79AFB02463B69A5
:101EB400D31A41F28832934201D90323B5E03E4B51
:101EC4001B6F03F00203002BEED1FB7D012B05D128
:101ED400394B1B6C384A23F0805313647B689B692D
:101EE400002B00F0A180344B9B6803F00C03082BFB
:101EF4005CD07B689B69022B41D1314B00221A6074
:101F0400FFF76EFB386108E0FFF76AFB02463B69A6
:101F1400D31A022B01D9032387E0274B1B6803F054
:101F24000073002BF0D17B68DA697B681B6A1A4363
:101F34007B685B6A9B011A437B689B6A5B08013B75
:101F44001B041A437B68DB6A1B061B4913434B6063
:101F54001B4B01221A60FFF743FB386108E0FFF7CF
:101F64003FFB02463B69D31A022B01D903235CE0F1
:101F7400114B1B6803F00073002BF0D054E0104B9E
:101F840000221A60FFF72CFB386108E0FFF728FBFA
:101F940002463B69D31A022B01D9032345E0064BC1
:101FA4001B6803F00073002BF0D13DE07B689B6954
:101FB400012B07D1012338E00038024000700040B3
:101FC400600047421B4B5B68FB607B689B69012B8D
:101FD40028D0FB6803F480027B68DB699A4221D134
:101FE400FB6803F03F027B681B6A9A421AD1FA68C5
:101FF40047F6C07313407A68526A9201934211D132
:10200400FB6803F440327B689B6A5B08013B1B045A
:102014009A4207D1FB6803F070627B68DB6A1B0697
:102024009A4201D0012300E0002318461837BD4628
:1020340080BD00BF0038024080B584B000AF786036
:1020440039607B68002B01D10123CCE0684B1B680D
:1020540003F007033A689A420CD9654B3A68D2B246
:102064001A70634B1B6803F007033A689A4201D065
:102074000123B8E07B681B6803F00203002B20D027
:102084007B681B6803F00403002B05D0594B9B6845
:10209400584A43F4E05393607B681B6803F00803D9
:1020A400002B05D0534B9B68524A43F46043936022
:1020B400504B9B6823F0F0027B689B684D491343A7
:1020C4008B607B681B6803F00103002B44D07B68A2
:1020D4005B68012B07D1474B1B6803F40033002BCB
:1020E40019D101237FE07B685B68022B03D07B68F6
:1020F4005B68032B07D13F4B1B6803F00073002B75
:1021040009D101236FE03B4B1B6803F00203002B52
:1021140001D1012367E0374B9B6823F003027B68FE
:102124005B68344913438B60FFF75AFAF8600AE09E
:10213400FFF756FA0246FB68D31A41F288329342FB
:1021440001D903234FE02B4B9B6803F00C027B68FF
:102154005B689B009A42EBD1254B1B6803F0070395
:102164003A689A420CD2224B3A68D2B21A70204B87
:102174001B6803F007033A689A4201D0012332E056
:102184007B681B6803F00403002B08D0194B9B6881
:1021940023F4E0527B68DB68164913438B607B6849
:1021A4001B6803F00803002B09D0124B9B6823F42F
:1021B40060427B681B69DB000E4913438B6000F0AF
:1021C4002DF802460B4B9B681B0903F00F030A49C9
:1021D400CB5C22FA03F3094A1360094B1B681846C7
:1021E400FFF7BAF9002318461037BD4680BD00BF7B
:1021F400003C0240003802402C6A00080400002021
:102204000800002080B400AF034B01221A6000BF15
:10221400BD465DF8047B70474C0047422DE9B04F42
:1022240090B000AF00237B630023FB6300233B6378
:102234000023BB63594B9B6803F00C03082B0DD0A0
:10224400082B00F2A180002B02D0042B03D09BE0CA
:10225400534BBB639BE0534BBB6398E04F4B5B68B2
:1022640003F03F037B634D4B5B6803F48003002B57
:1022740028D04A4B5B689B0900223B627A623B6A26
:10228400C3F308000021474B03FB01F2002300FBCA
:1022940003F31344434AA0FB0212FA620A46BA62E9
:1022A400FA6A1344FB627B6B0022BB61FA61D7E9D3
:1022B4000623D7E90A01FDF793FF02460B461346AE
:1022C400FB6353E0354B5B689B0900223B617A61F9
:1022D4003B69C3F3080A4FF0000B52465B464FF0CC
:1022E40000004FF00001590141EAD2615001024659
:1022F4000B46B2EB0A0863EB0B094FF000024FF0F8
:1023040000034FEA891343EA98634FEA8812B2EB59
:10231400080463EB09054FF000024FF00003EB00E3
:1023240043EA5473E20014461D4614EB0A033B606F
:1023340045EB0B037B604FF000024FF00003D7E93D
:10234400004529468B02214643EA915321468A02DD
:10235400104619467B6B0022BB60FA60D7E9022362
:10236400FDF73EFF02460B461346FB630B4B5B68CF
:102374001B0C03F0030301335B003B63FA6B3B6B01
:10238400B2FBF3F3BB6302E0054BBB6300BFBB6B63
:1023940018464037BD46BDE8B08F00BF0038024044
:1023A4000024F40040787D0180B400AF034B1B6827
:1023B4001846BD465DF8047B704700BF040000204A
:1023C40080B500AFFFF7F0FF0246054B9B689B0A00
:1023D40003F007030349CB5C22FA03F3184680BDDC
:1023E400003802403C6A000880B500AFFFF7DCFF0C
:1023F4000246054B9B685B0B03F007030349CB5C68
:1024040022FA03F3184680BD003802403C6A0008F3
:1024140080B500AF064BDB6803F08003802B04D14A
:1024240000F00AF8034B80221A7000BF80BD00BF81
:10243400003802400E38024080B400AF00BFBD46F1
:102444005DF8047B704780B582B000AF78607B682C
:10245400002B01D101237BE07B685B6A002B08D150
:102464007B685B68B3F5827F09D07B680022DA6100
:1024740005E07B6800221A617B6800225A617B6850
:1024840000229A627B6893F85130DBB2002B06D1AC
:102494007B68002283F850207868FEF70BFF7B6886
:1024A400022283F851207B681B681A687B681B68CA
:1024B40022F040021A607B685B6803F482727B68D6
:1024C4009B6803F404431A437B68DB6803F40063EA
:1024D4001A437B681B6903F002031A437B685B6938
:1024E40003F001031A437B689B6903F400731A43E6
:1024F4007B68DB6903F038031A437B681B6A03F0CB
:10250400800342EA03017B689B6A03F400527B6800
:102514001B680A431A607B689B691B0C03F0040167
:102524007B685B6A03F010027B681B680A435A608D
:102534007B681B68DA697B681B6822F40062DA61D5
:102544007B6800225A657B68012283F851200023AE
:1025540018460837BD4680BD80B588B000AFF86026
:10256400B9603B601346FB800023FB77FB6893F85C
:102574005030012B01D1022326E1FB68012283F8AC
:102584005020FFF72DF8B861FB88FB82FB6893F8B5
:102594005130DBB2012B02D00223FB770BE1BB6885
:1025A400002B02D0FB88002B02D10123FB7702E130
:1025B400FB68032283F85120FB6800225A65FB68FC
:1025C400BA681A63FB68FA889A86FB68FA88DA861E
:1025D400FB6800229A63FB6800229A87FB6800224A
:1025E400DA87FB6800225A64FB6800221A64FB68DD
:1025F4009B68B3F5004F0FD1FB681B681A68FB6832
:102604001B6822F040021A60FB681B681A68FB68AA
:102614001B6842F480421A60FB681B681B6803F065
:102624004003402B07D0FB681B681A68FB681B68D3
:1026340042F040021A60FB68DB68B3F5006F4BD1CF
:10264400FB685B68002B02D0FB8A012B3ED1FB6840
:102654001B6B1A88FB681B68DA60FB681B6B9A1C8F
:10266400FB681A63FB68DB8E9BB2013B9AB2FB6882
:10267400DA862BE0FB681B689B6803F00203022BDD
:1026840012D1FB681B6B1A88FB681B68DA60FB6855
:102694001B6B9A1CFB681A63FB68DB8E9BB2013BC5
:1026A4009AB2FB68DA8611E0FEF79AFF0246BB692C
:1026B400D31A3A689A4203D83B68B3F1FF3F02D178
:1026C4003B68002B02D10323FB7774E0FB68DB8EAD
:1026D4009BB2002BCED14CE0FB685B68002B02D090
:1026E400FB8A012B40D1FB681A6BFB681B680C3317
:1026F40012781A70FB681B6B5A1CFB681A63FB6820
:10270400DB8E9BB2013B9AB2FB68DA862CE0FB6855
:102714001B689B6803F00203022B13D1FB681A6B3E
:10272400FB681B680C3312781A70FB681B6B5A1C0D
:10273400FB681A63FB68DB8E9BB2013B9AB2FB68B1
:10274400DA8611E0FEF74CFF0246BB69D31A3A68F9
:102754009A4203D83B68B3F1FF3F02D13B68002B98
:1027640002D10323FB7726E0FB68DB8E9BB2002BB0
:10277400CDD1BA693968F86800F062FA0346002BD3
:1027840002D0FB6820225A65FB689B68002B0AD1A3
:1027940000233B61FB681B68DB683B61FB681B68CB
:1027A4009B683B613B69FB685B6D002B02D0012396
:1027B400FB7700E000BFFB68012283F85120FB682F
:1027C400002283F85020FB7F18462037BD4680BD89
:1027D40080B58CB000AFF860B9607A607B8001236B
:1027E400FB62002387F82B30FB6893F85030012BF1
:1027F40001D102238AE1FB68012283F85020FEF70D
:10280400EFFE7862FB6893F8513087F82330FB6859
:102814005B68FB617B887B8397F82330012B0FD0A7
:10282400FB69B3F5827F07D1FB689B68002B03D15A
:1028340097F82330042B03D0022387F82B305BE175
:10284400BB68002B05D07B68002B02D07B88002B53
:1028540003D1012387F82B304EE1FB6893F8513004
:10286400DBB2042B03D0FB68052283F85120FB68FC
:1028740000225A65FB687A689A63FB687A88DA876B
:10288400FB687A889A87FB68BA681A63FB687A8857
:10289400DA86FB687A889A86FB6800221A64FB68E9
:1028A40000225A64FB681B681B6803F04003402B3A
:1028B40007D0FB681B681A68FB681B6842F040027B
:1028C4001A60FB68DB68B3F5006F78D1FB685B685E
:1028D400002B02D07B8B012B66D1FB681B6B1A8803
:1028E400FB681B68DA60FB681B6B9A1CFB681A6345
:1028F400FB68DB8E9BB2013B9AB2FB68DA8653E03D
:10290400FB681B689B6803F00203022B1BD1FB6866
:10291400DB8E9BB2002B16D0FB6A012B13D1FB6814
:102924001B6B1A88FB681B68DA60FB681B6B9A1CBC
:10293400FB681A63FB68DB8E9BB2013B9AB2FB68AF
:10294400DA860023FB62FB681B689B6803F00103C3
:10295400012B19D1FB68DB8F9BB2002B14D0FB68D1
:102964001B68DA68FB689B6B92B21A80FB689B6BEE
:102974009A1CFB689A63FB68DB8F9BB2013B9AB29B
:10298400FB68DA870123FB62FEF72AFE02467B6AB4
:10299400D31ABA6B9A4207D8BB6BB3F1FF3F03D08B
:1029A400032387F82B30A7E0FB68DB8E9BB2002B58
:1029B400A6D1FB68DB8F9BB2002BA1D17CE0FB6826
:1029C4005B68002B02D07B8B012B6BD1FB681A6BED
:1029D400FB681B680C3312781A70FB681B6B5A1C5B
:1029E400FB681A63FB68DB8E9BB2013B9AB2FB68FF
:1029F400DA8657E0FB681B689B6803F00203022B2E
:102A04001CD1FB68DB8E9BB2002B17D0FB6A012B19
:102A140014D1FB681A6BFB681B680C3312781A70AC
:102A2400FB681B6B5A1CFB681A63FB68DB8E9BB24A
:102A3400013B9AB2FB68DA860023FB62FB681B68E1
:102A44009B6803F00103012B19D1FB68DB8F9BB258
:102A5400002B14D0FB681B68DA68FB689B6BD2B24E
:102A64001A70FB689B6B5A1CFB689A63FB68DB8FCC
:102A74009BB2013B9AB2FB68DA870123FB62FEF743
:102A8400AFFD02467B6AD31ABA6B9A4203D8BB6B7A
:102A9400B3F1FF3F02D1BB6B002B03D1032387F8B3
:102AA4002B3029E0FB68DB8E9BB2002BA2D1FB68A4
:102AB400DB8F9BB2002B9DD17A6AB96BF86800F06A
:102AC400BFF80346002B06D0012387F82B30FB68A0
:102AD40020225A6510E0FB689B68002B0BD1002371
:102AE4007B61FB681B68DB687B61FB681B689B6818
:102AF4007B617B6900E000BFFB68012283F8512001
:102B0400FB68002283F8502097F82B3018463037A2
:102B1400BD4680BD80B483B000AF78607B6893F815
:102B24005130DBB218460C37BD465DF8047B704764
:102B340080B588B000AFF860B9603B601346FB71A4
:102B4400FEF74EFD0246BB6A9B1A3A681344FB61CA
:102B5400FEF746FDB861394B1B685B011B0DFA6932
:102B640002FB03F37B6154E03B68B3F1FF3F50D0B9
:102B7400FEF736FD0246BB69D31AFA699A4202D9B6
:102B8400FB69002B3DD1FB681B685A68FB681B6816
:102B940022F0E0025A60FB685B68B3F5827F11D1D2
:102BA400FB689B68B3F5004F04D0FB689B68B3F5E2
:102BB400806F07D1FB681B681A68FB681B6822F0EA
:102BC40040021A60FB689B6AB3F5005F0FD1FB6893
:102BD4001B681A68FB681B6822F400521A60FB68C1
:102BE4001B681A68FB681B6842F400521A60FB6891
:102BF400012283F85120FB68002283F8502003232C
:102C040017E07B69002B01D10023FB617B69013B49
:102C14007B61FB681B689A68BB681340BA689A4278
:102C24000CBF01230023DBB21A46FB799A429BD1E5
:102C3400002318462037BD4680BD00BF0400002095
:102C440080B588B002AFF860B9607A601B4B1B682E
:102C54001B4AA2FB03235B0D4FF47A7202FB03F3BE
:102C64007B61FB685B68B3F5827F12D17B6800935C
:102C7400BB6800228021F868FFF75AFF0346002B47
:102C840016D0FB685B6D43F02002FB685A65032392
:102C94000FE07B69002B0AD07B69013B7B61FB68F9
:102CA4001B689B6803F08003802BF2D000E000BF18
:102CB400002318461837BD4680BD00BF040000201D
:102CC400819F5E1680B582B000AF78607B68002B70
:102CD40001D101233FE07B6893F83D30DBB2002B48
:102CE40006D17B68002283F83C207868FEF72AFB33
:102CF4007B68242283F83D207B681B68DA687B6844
:102D04001B6822F40052DA60786800F029F97B68C5
:102D14001B681A697B681B6822F490421A617B68FD
:102D24001B685A697B681B6822F02A025A617B6817
:102D34001B68DA687B681B6842F40052DA607B68BF
:102D440000221A647B68202283F83D207B682022BD
:102D540083F83E20002318460837BD4680BD80B561
:102D64008AB002AFF860B9603B601346FB80002371
:102D74007B61FB6893F83D30DBB2202B7CD1BB68D0
:102D8400002B02D0FB88002B01D1012375E0FB68E6
:102D940093F83C30012B01D102236EE0FB68012241
:102DA40083F83C20FB6800221A64FB68212283F824
:102DB4003D20FEF715FC7861FB68FA889A84FB686D
:102DC400FA88DA84FB689B68B3F5805F08D1FB68F6
:102DD4001B69002B04D10023FB61BB68BB6103E0CA
:102DE400BB68FB610023BB61FB68002283F83C20C5
:102DF4002AE03B6800937B6900228021F86800F098
:102E040040F80346002B01D0032336E0FB69002B76
:102E14000BD1BB691B881A46FB681B68C2F3080206
:102E24005A60BB690233BB6107E0FB691A78FB682F
:102E34001B685A60FB690133FB61FB68DB8C9BB246
:102E4400013B9AB2FB68DA84FB68DB8C9BB2002BF3
:102E5400CFD13B6800937B6900224021F86800F0E1
:102E640010F80346002B01D0032306E0FB68202260
:102E740083F83D20002300E0022318462037BD4696
:102E840080BD80B590B000AFF860B9603B60134678
:102E9400FB7150E0BB6CB3F1FF3F4CD0BB6C002B1B
:102EA40007D0FEF79DFB02463B68D31ABA6C9A42E0
:102EB40041D2FB681B680C33BB62BB6A53E8003F1A
:102EC4007B627B6A23F4D073FB63FB681B680C335F
:102ED400FA6B7A633B63396B7A6B41E80023FB62DC
:102EE400FB6A002BE5D1FB681B6814337B617B69AB
:102EF40053E8003F3B613B6923F00103BB63FB687C
:102F04001B681433BA6B3A62FB61F9693A6A41E8A7
:102F14000023BB61BB69002BE5D1FB68202283F849
:102F24003D20FB68202283F83E20FB68002283F8C2
:102F34003C2003230FE0FB681B681A68BB6813403E
:102F4400BA689A420CBF01230023DBB21A46FB790C
:102F54009A429FD0002318464037BD4680BD0000EA
:102F64002DE9B04FC0B000AFC7F8F400D7F8F43083
:102F74001B681B6923F44050D7F8F430D968D7F89C
:102F8400F4301A6840EA01031361D7F8F4309A6800
:102F9400D7F8F4301B691A43D7F8F4305B691A4345
:102FA400D7F8F430DB691343C7F8F830D7F8F430B6
:102FB4001B68DB6823F4164121F00C01D7F8F430C8
:102FC4001A68D7F8F8300B43D360D7F8F4301B688D
:102FD4005B6923F44070D7F8F4309969D7F8F4307A
:102FE4001A6840EA01035361D7F8F4301A688F4B2A
:102FF4009A4205D0D7F8F4301A688D4B9A4204D11E
:10300400FFF7F2F9C7F8FC0003E0FFF7D9F9C7F8B6
:10301400FC00D7F8F430DB69B3F5004F40F00C81C5
:10302400D7F8FC300022C7F8E830C7F8EC20D7E91D
:103034003A4522462B469118B9655B41FB65D7E9B1
:103044001623214612EB0108294643EB01094FF0F0
:1030540000024FF000034FEAC90343EA58734FEAF2
:10306400C80290469946234618EB0303C7F8E0309C
:103074002B4649EB0303C7F8E430D7F8F4305B6818
:103084000022C7F8D830C7F8DC20D7E936120B463F
:10309400DB183B65134642EB03037B65D7E9142336
:1030A400D7E93801FDF79CF802460B46614BA3FBB8
:1030B40002235B091C01D7F8FC300022C7F8D0308A
:1030C400C7F8D420D7E9348942464B469118B964ED
:1030D4005B41FB64D7E91223414612EB010A4946DE
:1030E40043EB010B4FF000024FF000034FEACB0318
:1030F40043EA5A734FEACA0292469B4643461AEB86
:103104000303C7F8C8304B464BEB0303C7F8CC3076
:10311400D7F8F4305B680022C7F8C030C7F8C42081
:10312400D7E930120B46DB183B64134642EB03032A
:103134007B64D7E91023D7E93201FDF751F8024641
:103144000B4611463B4BA3FB01235B09642202FBA4
:1031540003F3CB1ADB0003F13202364BA3FB022349
:103164005B095B0003F4F8731C44D7F8FC300022BD
:10317400C7F8B830C7F8BC20D7E92E8942464B4679
:103184009118B9635B41FB63D7E90E23414651189B
:10319400396349464B417B634FF000024FF0000313
:1031A400D7E90CAB5946CB00514643EA517351461B
:1031B400CA0010461946034642469B18C7F8B03069
:1031C4004B460A4642EB0303C7F8B430D7F8F43051
:1031D4005B680022C7F8A830C7F8AC20D7E92A12E8
:1031E4000B46DB18BB62134642EB0303FB62D7E9D1
:1031F4000A23D7E92C01FCF7F3FF02460B460D4BDB
:10320400A3FB02135B09642101FB03F3D31ADB0064
:103214003233084AA2FB03235B0903F00702D7F801
:10322400F4301B6822449A6005E100BF001001409D
:10323400001401401F85EB51D7F8FC300022C7F879
:10324400A030C7F8A420D7E9288942464B469118F4
:1032540039625B417B62D7E90823414654184946E9
:1032640043EB01054FF000024FF00003EB0043EA8B
:103274005473E20014461D464346E318C7F89830D9
:103284004B4645EB0303C7F89C30D7F8F4305B6832
:103294000022C7F89030C7F894204FF000024FF096
:1032A4000003D7E9244529468B00214643EA91735C
:1032B40021468A00D7E92601FCF792FF02460B4615
:1032C400604BA3FB02235B091C01D7F8FC300022EE
:1032D400C7F88830C7F88C20D7E9228942464B4684
:1032E4009118B9615B41FB61D7E906234146511846
:1032F400396149464B417B614FF000024FF00003B6
:10330400D7E904AB5946CB00514643EA51735146C1
:10331400CA0010461946034642469B18C7F8803037
:103324004B460A4642EB0303C7F88430D7F8F4301F
:103334005B680022BB67FA674FF000024FF000039E
:10334400D7E91E8949468B00414643EA91734146B9
:103354008A00D7E92001FCF743FF02460B46394BAC
:10336400A3FB02135B09642101FB03F3D31A1B01C2
:103374003233344AA2FB03235B0903F0F0031C44F9
:10338400D7F8FC3000223B677A67D7E91C894246AC
:103394004B469118B9605B41FB60D7E90223414673
:1033A4005118396049464B417B604FF000024FF0A1
:1033B4000003D7E900AB5946CB00514643EA5173A9
:1033C4005146CA0010461946034642469B18BB663E
:1033D4004B460A4642EB0303FB66D7F8F4305B68BE
:1033E40000223B667A664FF000024FF00003D7E9F3
:1033F400188949468B00414643EA917341468A0045
:10340400D7E91A01FCF7ECFE02460B460D4BA3FB71
:1034140002135B09642101FB03F3D31A1B0132334A
:10342400084AA2FB03235B0903F00F02D7F8F43028
:103434001B6822449A6000BF07F58077BD46BDE84B
:10344400B08F00BF1F85EB5180B500AF044905481C
:1034540003F01AF903461A46034B1A7000BF80BDE5
:1034640058250020100000205425002080B400AF0F
:1034740000231846BD465DF8047B704780B582B0D2
:1034840000AF0346FB71FB791846FDF7E5F90346E7
:10349400DBB218460837BD4680BD80B582B000AFA8
:1034A4000346FB71FB791846FDF7C0FA0346DBB20D
:1034B40018460837BD4680BD80B584B000AFB960FA
:1034C4007A603B600346FB73F87B3B687A68B968B3
:1034D400FDF7C2FA0346DBB218461037BD4680BD7D
:1034E40080B584B000AFB9607A603B600346FB737B
:1034F400F87B3B687A68B968FDF718FB0346DBB2D2
:1035040018461037BD4680BD80B582B000AF034673
:103514003A60FB710B46BB71FB79B9793A6818467E
:10352400FDF788FB0346DBB218460837BD4680BD6D
:1035340080B584B000AF0346FB71FB79084A9B0059
:1035440013445B685B68FA7905490A44127A1046A9
:1035540098470346FB73FB7B18461037BD4680BD76
:103564008427002080B584B000AF0346FB7100239C
:10357400FB73FB790D4AD35C002B11D1FB790B4A09
:103584000121D154FB79094A9B0013445B681B68F1
:10359400FA7906490A44127A104698470346FB739F
:1035A400FB7B18461037BD4680BD00BF8427002032
:1035B40090B587B000AFB9607A603B600346FB7397
:1035C400FB7B0A4A9B0013445B689C68FB7B074AAD
:1035D4001344187A3B687A68B968A0470346FB75B8
:1035E400FB7D18461C37BD4690BD00BF84270020D4
:1035F40090B587B000AFB9607A603B600346FB7357
:10360400FB7B0A4A9B0013445B68DC68FB7B074A2C
:103614001344187A3B687A68B968A0470346FB7577
:10362400FB7D18461C37BD4690BD00BF8427002093
:1036340080B584B000AF03463A60FB710B46BB71A2
:10364400FB79094A9B0013445B681B69FA790649B4
:103654000A44107AB9793A6898470346FB73FB7BAE
:1036640018461037BD4680BD8427002080B485B03D
:1036740000AF78607B6801331B78FB81FB891B02F8
:103684001AB27B681B781BB213431BB2FB81FB8904
:1036940018461437BD465DF8047B704780B485B086
:1036A40000AF78607B6803331B78FB60FB681B0208
:1036B4007A68023212781343FB60FB681B027A6853
:1036C400013212781343FB60FB681B027A6812789C
:1036D4001343FB60FB6818461437BD465DF8047B52
:1036E400704780B483B000AF78600B467B807B6802
:1036F4005A1C7A607A88D2B21A707B881B0A7B8043
:103704007B685A1C7A607A88D2B21A7000BF0C3770
:10371400BD465DF8047B704780B483B000AF786029
:1037240039607B685A1C7A603A68D2B21A703B6876
:103734001B0A3B607B685A1C7A603A68D2B21A70E2
:103744003B681B0A3B607B685A1C7A603A68D2B2B9
:103754001A703B681B0A3B607B685A1C7A603A68A3
:10376400D2B21A7000BF0C37BD465DF8047B7047B7
:1037740080B487B000AFF860B9607A60FB687B61A1
:10378400BB683B617B68002B0DD03A69531C3B61DD
:103794007B69591C796112781A707B68013B7B60E4
:1037A4007B68002BF1D100BF1C37BD465DF8047B5C
:1037B400704780B487B000AFF860B9607A60FB6886
:1037C4007B617B695A1C7A61BA68D2B21A707B68D1
:1037D400013B7B607B68002BF3D100BF00BF1C372B
:1037E400BD465DF8047B704780B489B000AFF860D3
:1037F400B9607A60FB68FB61BB68BB6100237B61D5
:10380400FB695A1CFA611B781946BB695A1CBA61D8
:103814001B78CB1A7B617B68013B7B607B68002B48
:1038240002D07B69002BEBD07B6918462437BD4658
:103834005DF8047B704780B483B000AF7860396072
:1038440002E07B6801337B607B681B78002B05D02A
:103854007B681B781A463B689342F2D17B681B78DD
:1038640018460C37BD465DF8047B704780B485B0BC
:1038740000AF786039600023BB60BB68FB6029E05F
:10388400274AFB681B0113441B68002B1DD0244AE4
:10389400FB681B0113441A687B681B689A4216D1A3
:1038A4001F4AFB681B01134404331A687B689B6836
:1038B4009A420CD11A4AFB681B01134408331A6854
:1038C4007B685B699A4202D107E00123BB60FB6815
:1038D4000133FB60FB68012BD2D9FB68022B09D1B1
:1038E400BB68002B02D13B68022B01D1002310E0FE
:1038F40012230EE03B68002B08D1094AFB681B0128
:1039040013440C331B88B3F5807F01D1102300E0EE
:10391400002318461437BD465DF8047B704700BF8A
:103924006425002080B483B000AF00237B6002E0F4
:103934007B6801337B607B68012B06D8094A7B686E
:103944001B0113441B68002BF2D17B68022B14BFAC
:1039540001230023DBB218460C37BD465DF8047B17
:10396400704700BF6425002080B485B000AF786044
:1039740039600023FB601FE0414AFB681B011344CC
:103984001A687B681B689A4213D13D4AFB681B0185
:10399400134404331A687B689B689A4209D1384AF5
:1039A400FB681B01134408331A687B685B699A42FD
:1039B40006D0FB680133FB60FB68012BDCD900E017
:1039C40000BFFB68022B32D10023FB6002E0FB68DE
:1039D4000133FB60FB68012B06D8294AFB681B01F5
:1039E40013441B68002BF2D1FB68022B01D1002386
:1039F40040E07B681A682249FB681B010B441A608B
:103A04007B689A681E49FB681B010B4404331A60E7
:103A14007B685A691A49FB681B010B4408331A6016
:103A2400174AFB681B0113440C3300221A803B68BD
:103A3400002B09D0124AFB681B0113440C331B886A
:103A4400002B01D0002315E03B68002B08D10C4A61
:103A5400FB681B0113440C331B8801339AB201E049
:103A64004FF480720649FB681B010B440C331A8027
:103A7400FB68013318461437BD465DF8047B704774
:103A84006425002080B485B000AF78607B68013B7A
:103A94007B607B68012B25D8174A7B681B01134484
:103AA4000C331B88FB81FB89B3F5807F01D1002394
:103AB400FB81FB89002B02D0FB89013BFB810E4A71
:103AC4007B681B0113440C33FA891A80FB89002B91
:103AD40005D1094A7B681B01134400221A600023A4
:103AE4007B7301E002237B737B7B18461437BD464E
:103AF4005DF8047B704700BF6425002080B485B066
:103B040000AF78600023FB6010E00D4AFB681B01E6
:103B140013441B687A689A4205D1094AFB681B0161
:103B2400134400221A60FB680133FB60FB68012B1D
:103B3400EBD900BF00BF1437BD465DF8047B704766
:103B44006425002080B586B000AF78600023FB7345
:103B54007B68DB78002B34D07B685B6B7B617B6894
:103B640058787B6803F1380101237A69FFF740FD37
:103B74000346002B02D00123FB7322E07B68002262
:103B8400DA707B689B6A7A69D21A7B681B6A9A42EC
:103B940017D27B689B783B6110E07B681B6A7A696B
:103BA40013447B617B6858787B6803F138010123F7
:103BB4007A69FFF71DFD3B69013B3B613B69012BC2
:103BC400EBD8FB7B18461837BD4680BD80B584B062
:103BD40000AF786039600023FB737B685B6B3A68E5
:103BE4009A421BD07868FFF7ADFF0346FB73FB7B5B
:103BF400002B13D17B6858787B6803F138010123CB
:103C04003A68FFF7D5FC0346002B04D04FF0FF338E
:103C14003B600123FB737B683A685A63FB7B18465D
:103C24001037BD4680BD000080B584B000AF786019
:103C34007868FFF787FF0346FB73FB7B002B59D1A2
:103C44007B681B78032B49D17B681B79012B45D1F9
:103C54007B6803F138007B689B891A460021FFF7D3
:103C6400A8FD7B68383303F5FF734AF655211846DF
:103C7400FFF737FD7B68383321491846FFF74CFDC1
:103C84007B68383303F5F2731E491846FFF744FD89
:103C94007B68383303F5F4727B689B6919461046D8
:103CA400FFF73AFD7B68383303F5F6727B685B698E
:103CB40019461046FFF730FD7B685B6A5A1C7B6827
:103CC4005A637B6858787B6803F138017B685A6BC8
:103CD4000123FFF78DFC7B6800221A717B685B78F7
:103CE400002200211846FFF7A3FC0346002B01D055
:103CF4000123FB73FB7B18461037BD4680BD00BF14
:103D0400525261417272416180B483B000AF7860F5
:103D140039603B68023B3B607B68DB69023B3A6885
:103D24009A4201D3002308E07B685B891A463B680A
:103D340003FB02F27B681B6B134418460C37BD4629
:103D44005DF8047B704780B586B000AF7860396059
:103D54007B681B683B613B68012B04D93B69DB69C9
:103D64003A689A4202D301237B61BBE04FF0FF33F0
:103D74007B613B691B78032B00F08380032B00F3EA
:103D8400A780012B02D0022B56D0A1E03B68FB6038
:103D9400FB685B08FA681344FB603B699A6A3B69F9
:103DA4009B891946FB68B3FBF1F313441946386940
:103DB400FFF70CFF0346002B40F08D80FB685A1C74
:103DC400FA603A699289B3FBF2F101FB02F29B1AA1
:103DD4003A69134493F83830BB603B699A6A3B698B
:103DE4009B891946FB68B3FBF1F313441946386900
:103DF400FFF7ECFE0346002B6FD13B699B891A4603
:103E0400FB68B3FBF2F101FB02F29B1A3A6913441B
:103E140093F838301B021A46BB681343BB603B68F7
:103E240003F00103002B02D0BB681B0902E0BB684E
:103E3400C3F30B037B6155E03B699A6A3B699B8939
:103E44005B089BB219463B68B3FBF1F31344194674
:103E54003869FFF7BBFE0346002B40D13B6903F1F1
:103E640038013B685B003A699289B3FBF2F000FBCE
:103E740002F29B1A0B441846FFF7F8FB03467B61DA
:103E840030E03B699A6A3B699B899B089BB219465F
:103E94003B68B3FBF1F3134419463869FFF796FE08
:103EA4000346002B1DD13B6903F138013B689B009D
:103EB4003A699289B3FBF2F000FB02F29B1A0B44BD
:103EC4001846FFF7EBFB034623F070437B6109E0E0
:103ED40001237B6106E000BF04E000BF02E000BFF5
:103EE40000E000BF7B6918461837BD4680BD90B519
:103EF40089B000AFF860B9607A600223FB77BB68D1
:103F0400012B40F20281FB68DB69BA689A4280F0B7
:103F1400FC80FB681B78032B00F0B680032B00F3B6
:103F2400FD80012B03D0022B00F08380F6E0BB68F8
:103F3400BB61BB695B08BA691344BB61FB689A6ADD
:103F4400FB689B891946BB69B3FBF1F3134419461B
:103F5400F868FFF73BFE0346FB77FB7F002B40F03E
:103F6400D680FB6803F13801BB695A1CBA61FA6850
:103F74009289B3FBF2F000FB02F29B1A0B447B61C3
:103F8400BB6803F00103002B0DD07B691B785BB287
:103F940003F00F035AB27B68DBB21B015BB213431D
:103FA4005BB2DBB201E07B68DBB27A691370FB6859
:103FB4000122DA70FB689A6AFB689B891946BB691F
:103FC400B3FBF1F313441946F868FFF7FFFD03460A
:103FD400FB77FB7F002B40F09C80FB6803F13801EA
:103FE400FB689B891A46BB69B3FBF2F000FB02F243
:103FF4009B1A0B447B61BB6803F00103002B03D0C5
:104004007B681B09DBB20EE07B691B785BB223F093
:104014000F035AB27B681B0A5BB203F00F035BB257
:1040240013435BB2DBB27A691370FB680122DA7066
:1040340074E0FB689A6AFB689B895B089BB219462B
:10404400BB68B3FBF1F313441946F868FFF7BEFDF0
:104054000346FB77FB7F002B5DD1FB6803F138013E
:10406400BB685B00FA689289B3FBF2F000FB02F2D2
:104074009B1A0B447A6892B211461846FFF731FB3B
:10408400FB680122DA7049E0FB689A6AFB689B8945
:104094009B089BB21946BB68B3FBF1F31344194662
:1040A400F868FFF793FD0346FB77FB7F002B34D1C1
:1040B4007B6823F07044FB6803F13801BB689B0004
:1040C400FA689289B3FBF2F000FB02F29B1A0B44EC
:1040D4001846FFF7E3FA034603F0704323437B607B
:1040E400FB6803F13801BB689B00FA689289B3FB53
:1040F400F2F000FB02F29B1A0B4479681846FFF7B2
:104104000BFBFB680122DA7008E000BF06E000BF89
:1041140004E000BF02E000BF00E000BFFB7F1846E0
:104124002437BD4690BD80B588B000AFF860B96053
:104134007A600023FB77FB681B68BB61BB68012BBB
:1041440004D9BB69DB69BA689A4201D302234BE004
:104154007B68002B0CD04FF0FF327968B869FFF709
:10416400C6FE0346FB77FB7F002B01D0FB7F3BE0C1
:10417400B968F868FFF7E7FD78617B69002B31D0F7
:104184007B69012B01D102232EE07B69B3F1FF3F50
:1041940001D1012328E00022B968B869FFF7A7FE1E
:1041A4000346FB77FB7F002B01D0FB7F1CE0BB6940
:1041B4009A69BB69DB69023B9A420BD2BB699B6972
:1041C4005A1CBB699A61BB691B7943F00103DAB2DB
:1041D400BB691A717B69BB60BB69DB69BA689A42C7
:1041E400C6D300E000BF002318462037BD4680BD7B
:1041F40080B588B000AF786039607B681B683B612C
:104204003B68002B0DD13B695B69BB61BB69002B2B
:1042140004D03B69DB69BA699A421BD30123BB61B1
:1042240018E039687868FFF78EFDF860FB68012BA9
:1042340001D8012370E0FB68B3F1FF3F01D1FB68B3
:104244006AE03B69DB69FA689A4201D2FB6863E081
:104254003B68BB61BB69FB61FB690133FB613B6983
:10426400DB69FA699A4207D30223FB61FA69BB69E5
:104274009A4201D900234FE0F9697868FFF763FD9A
:10428400F860FB68002B0ED0FB68012B03D0FB68A1
:10429400B3F1FF3F01D1FB683EE0FA69BB699A4282
:1042A400DAD1002338E000BF4FF0FF32F9693869F2
:1042B400FFF71DFE0346FB75FB7D002B09D13B6810
:1042C400002B06D0FA6939683869FFF710FE0346F7
:1042D400FB75FB7D002B16D13B69FA695A613B697A
:1042E4009A693B69DB69023B9A4204D83B699B6942
:1042F4005A1E3B699A613B691B7943F00103DAB2A8
:104304003B691A7107E0FB7D012B02D14FF0FF33AB
:1043140000E00123FB61FB6918462037BD4680BDE0
:1043240080B487B000AF786039607B681B68FB603D
:104334007B68DB6A04333B61FB689B891A463B68F4
:10434400B3FBF2F3FA685289B3FBF2F37B613B6986
:104354001A1D3A611B68BB60BB68002B01D10023A6
:1043640010E07A69BB689A4207D37A69BB68D31AAA
:104374007B613B6904333B61E9E700BF3B691A6831
:104384007B69134418461C37BD465DF8047B7047AF
:1043940080B586B000AF786039607B681B683B618C
:1043A4003B68B3F5001F04D23B6803F01F03002BE6
:1043B40001D0022371E07B683A685A617B689B688C
:1043C4007B617B69002B06D13B691B78022B02D9E8
:1043D4003B69DB6A7B617B69002B0CD13B685B0921
:1043E4003A691289934201D3022356E03B69DA6A9F
:1043F4007B68DA612DE03B695B891A463B699B89DE
:1044040002FB03F3FB6019E07B6879691846FFF748
:104414009AFC78617B69B3F1FF3F01D101233CE051
:104424007B69012B04D93B69DB697A699A4201D320
:10443400022332E03A68FB68D31A3B603A68FB68AF
:104444009A42E1D279693869FFF75EFC02467B68DB
:10445400DA617B687A699A617B68DB69002B01D138
:1044640002231AE07B68DA693B699B8919463B6839
:10447400B3FBF1F31A447B68DA613B6903F1380159
:104484003B699B891A463B68B3FBF2F000FB02F2DE
:104494009B1ACA187B681A62002318461837BD464F
:1044A40080BD80B586B000AF786039607B681B68DA
:1044B400FB607B685B692033BB607B68DB69002B36
:1044C40003D0BB68B3F5001F01D30423BBE0FB6832
:1044D4009B891A46BB68B3FBF2F101FB02F29B1AFB
:1044E400002B40F09D807B68DB695A1C7B68DA6195
:1044F4007B689B69002B0BD1BB685B09FA68128946
:104504009342C0F08D807B680022DA6104239AE034
:10451400FB689B891A46BB68B3FBF2F3FA685289BD
:10452400013A1340002B7BD17A687B689B6919465A
:104534001046FFF708FC78617B69012B01D8022340
:1045440081E07B69B3F1FF3F01D101237BE0FB688C
:10455400DB697A699A4259D33B68002B04D17B68A2
:104564000022DA6104236EE07A687B689B6919464D
:104574001046FFF73DFE78617B69002B01D10723CC
:1045840061E07B69012B01D102235CE07B69B3F11B
:10459400FF3F01D1012356E0F868FFF7D3FA034641
:1045A400002B01D001234EE0FB6803F13800FB68C7
:1045B4009B891A460021FFF7FCF800233B617969C7
:1045C400F868FFF7A1FB0246FB685A6312E0FB6838
:1045D4000122DA70F868FFF7B5FA0346002B01D020
:1045E400012330E03B6901333B61FB685B6B5A1C80
:1045F400FB685A63FB685B891A463B699342E6D3BE
:10460400FB685A6B3B69D21AFB685A637B687A6908
:104614009A617969F868FFF777FB02467B68DA618B
:104624007B68BA685A61FB6803F13801FB689B89AF
:104634001A46BB68B3FBF2F000FB02F29B1ACA18DD
:104644007B681A62002318461837BD4680BD80B5C2
:1046540086B000AF786039607B681B68FB6000211E
:104664007868FFF795FE0346FB75FB7D002B2BD185
:1046740000233B617B68DB691946F868FFF7A6FAFB
:104684000346FB75FB7D002B1DD17B681B6A1B78E1
:10469400E52B04D07B681B6A1B78002B07D13B6990
:1046A40001333B613A693B689A4202D10CE0002332
:1046B4003B6101217868FFF7F4FE0346FB75FB7D3F
:1046C400002BD7D000E000BFFB7D042B01D10723D2
:1046D400FB75FB7D18461837BD4680BD80B584B098
:1046E40000AF786039603B681A331846FEF7BEFFA6
:1046F4000346FB607B681B78032B09D13B681433AA
:104704001846FEF7B3FF03461B04FA681343FB6025
:10471400FB6818461037BD4680BD80B584B000AF35
:10472400F860B9607A60BB681A337A6892B211464D
:104734001846FEF7D6FFFB681B78032B09D1BB682C
:1047440003F114027B681B0C9BB219461046FEF75A
:10475400C8FF00BF1037BD4680BD000090B587B0CC
:1047640000AF786039603B681A331846FEF77EFF65
:104774000346002B01D0002359E03B681B7803F06B
:104784003F035A1E13465B0013449B0013447B6192
:104794000123FB8100233B6133E0274A3B69134437
:1047A4001B781A463B6813441846FEF75FFF03461E
:1047B400BB81FB89002B1AD07B69FE2B12D8BB89E5
:1047C400184601F0ADFF03461C467B695A1C7A610A
:1047D4005B007A6813441B88184601F0A1FF034666
:1047E4009C4201D0002322E0BB89FB8106E0BB8907
:1047F4004FF6FF72934201D0002318E03B69013366
:104804003B613B690C2BC8D93B681B7803F0400320
:10481400002B0BD0FB89002B08D07B695B007A68E6
:1048240013441B88002B01D0002300E00123184609
:104834001C37BD4690BD00BFC46A000880B588B06F
:1048440000AFF860B96011461A460B46FB71134677
:10485400BB71BB680D33BA791A70BB680B330F2276
:104864001A70BB680C3300221A70BB681A3300211B
:104874001846FEF736FFFB795A1E13465B001344B5
:104884009B001344FB610023FB820023BB61FB8A72
:104894004FF6FF72934207D0FB695A1CFA615B0022
:1048A400FA6813441B88FB82174ABB6913441B78BC
:1048B4001A46BB681344FA8A11461846FEF711FFDC
:1048C400FB8A002B02D14FF6FF73FB82BB690133D5
:1048D400BB61BB690C2BDAD9FB8A4FF6FF7293429A
:1048E40006D0FB695B00FA6813441B88002B03D1D4
:1048F400FB7943F04003FB71BB68FA791A7000BF7F
:104904002037BD4680BD00BFC46A000880B58CB0A6
:1049140000AFF860B9607A603B600B22B968F86850
:10492400FEF726FF3B68052B2BD93B68FB6122E091
:104934007B689A1C7A601B887B840023BB6217E027
:10494400FB695A007B8C03F001031344FB617B8CED
:104954005B087B84FB6903F48033002B05D0FB697F
:1049640083F4883383F02103FB61BB6A0133BB62A8
:10497400BB6A0F2BE4D97B681B88002BD8D1FB6959
:104984003B600723BB623B68DBB203F00F03DBB27F
:10499400303387F82F3097F82F30392B04D997F814
:1049A4002F30073387F82F30BB6A5A1EBA62303370
:1049B4003B4497F82F2003F81C2C3B681B093B60F1
:1049C4003B68002BDFD107F11402BB6A13447E223B
:1049D4001A7000237B6202E07B6A01337B627A6A8D
:1049E400BB6A9A4205D2FA687B6A13441B78202B6F
:1049F400F2D1BB6A072B07D8BB6A5A1CBA623033A0
:104A04003B4413F81C1C00E020217B6A5A1C7A6288
:104A1400FA6813440A461A707B6A072BE9D900BF67
:104A240000BF3037BD4680BD80B485B000AF78602C
:104A34000023FB730B23BB60FB7BDAB25208DB0160
:104A44001343DAB27B68591C79601B781344FB73F7
:104A5400BB68013BBB60BB68002BEDD1FB7B1846F8
:104A64001437BD465DF8047B704780B586B000AF4F
:104A740078607B681B683B6100217868FFF788FCDD
:104A84000346FB75FB7D002B01D0FB7DA9E0FF23D2
:104A94003B753B7D7B757B684FF0FF321A637B6807
:104AA400DB6919463869FFF791F80346FB75FB7D0E
:104AB400002B40F090807B681B6A1B78BB75BB7D24
:104AC400002B02D10423FB758AE07B681B6A0B333D
:104AD4001B7803F03F03FB737B68FA7B9A71BB7D01
:104AE400E52B07D0FB7B03F00803002B09D0FB7BED
:104AF4000F2B06D0FF237B757B684FF0FF321A63C0
:104B04005EE0FB7B0F2B36D17B6893F82F3003F0EC
:104B14004003002B54D1BB7D03F04003002B0DD088
:104B24007B681B6A5B7B3B75BB7D23F04003BB75D5
:104B3400BB7D7B757B685A697B681A63BA7D7B7D14
:104B44009A4215D17B681B6A0D331B783A7D9A42D1
:104B54000ED13B691A697B681B6A19461046FFF738
:104B6400FDFD0346002B03D07B7D013BDBB200E05F
:104B7400FF237B7524E07B7D002B09D17B681B6AB6
:104B84001846FFF751FF03461A463B7D934224D053
:104B94007B6893F82F3003F00103002B0AD17B6864
:104BA400186A7B6824330B221946FEF71DFE034660
:104BB400002B14D0FF237B757B684FF0FF321A6300
:104BC40000217868FFF76DFC0346FB75FB7D002B25
:104BD4003FF465AF04E000BF02E000BF00E000BFA7
:104BE400FB7D18461837BD4680BD000080B58CB0EB
:104BF40000AF78607B681B68FB617B6893F82F309B
:104C040003F0A003002B01D00623E0E000237B6225
:104C140002E07B6A01337B62FB691A697B6A5B0091
:104C240013441B88002BF4D17B6803F1240107F1A2
:104C34000C030C221846FEF79BFDFB7D03F00103D9
:104C4400002B32D07B68402283F82F200123BB62E3
:104C540016E07B6803F12400FB691A6907F10C0173
:104C6400BB6AFFF753FE7868FFF7FFFE034687F839
:104C74002F3097F82F30002B06D1BB6A0133BB626B
:104C8400BB6A632BE5D900E000BFBB6A642B01D18A
:104C940007239CE097F82F30042B02D097F82F308D
:104CA40095E0FA7D7B6883F82F20FB7D03F00203F7
:104CB400002B07D07B6A0C33474AA2FB03239B08D3
:104CC400013300E001233B62396A7868FFF7BFFCD7
:104CD400034687F82F3097F82F30002B48D13B6AD2
:104CE400013B3B623B6A002B42D07B685A693B6ABA
:104CF4005B01D31A19467868FFF74AFB034687F825
:104D04002F3097F82F30002B32D17B68243318468C
:104D1400FFF78AFE0346FB767B68DB691946F86970
:104D2400FEF754FF034687F82F3097F82F30002BF7
:104D34001DD1FB6918697B68196A3B6ADAB2FB7E8C
:104D4400FFF77CFDFB690122DA7000217868FFF728
:104D5400A8FB034687F82F3097F82F30002B07D194
:104D64003B6A013B3B623B6A002BD5D100E000BFAC
:104D740097F82F30002B28D17B68DB691946F86936
:104D8400FEF724FF034687F82F3097F82F30002BC7
:104D94001BD17B681B6A202200211846FEF709FDFF
:104DA4007B68186A7B6824330B221946FEF7E0FC03
:104DB4007B6893F82F207B681B6A0C3302F018027F
:104DC400D2B21A70FB690122DA7097F82F301846B4
:104DD4003037BD4680BD00BF4FECC44E80B58AB0AD
:104DE40000AF786039603B681B683B617B681B6877
:104DF4001B69FB6000237B617B69BB61BB695A1C37
:104E0400BA613A6913441B78BB84BB8C1F2B40D90D
:104E1400BB8C2F2B06D0BB8C5C2B10D102E0BB6962
:104E24000133BB613A69BB6913441B782F2BF6D05D
:104E34003A69BB6913441B785C2BF0D02AE07B6988
:104E4400FE2B01D906237DE1BB8CDBB2BB84BB8C7A
:104E54000121184601F028FC0346BB84BB8C002BBF
:104E640001D106236EE1BB8C7F2B09D8BB8C19467C
:104E74008D48FEF7E0FC0346002B01D0062361E1D8
:104E84007B695A1C7A615B00FA681344BA8C1A80F5
:104E9400B4E700BF3A69BB691A443B681A60BB8C2B
:104EA4001F2B01D8042300E0002387F8273011E0EA
:104EB4007B6903F10043013B5B00FA6813441B88E0
:104EC400BB84BB8C202B02D0BB8C2E2B06D17B69E0
:104ED400013B7B617B69002BEAD100E000BF7B6969
:104EE4005B00FA68134400221A807B69002B01D10D
:104EF400062327E17B6824330B2220211846FEF782
:104F040058FC0023BB6102E0BB690133BB61BB6990
:104F14005B00FA6813441B88202BF5D0BB695B0047
:104F2400FA6813441B882E2BEED0BB69002B09D0E2
:104F340097F8273043F0030387F8273002E07B69B2
:104F4400013B7B617B69002B09D07B6903F1004342
:104F5400013B5B00FA6813441B882E2BEFD100231E
:104F640087F8263000233B620823FB61BB695A1C87
:104F7400BA615B00FA6813441B88BB84BB8C002BAA
:104F840000F09080BB8C202B06D0BB8C2E2B0AD13A
:104F9400BA697B699A4206D097F8273043F0030335
:104FA40087F827307DE03A6AFB699A4203D2BA69EE
:104FB4007B699A4223D1FB690B2B06D197F82730E2
:104FC40043F0030387F8273075E0BA697B699A4296
:104FD40005D097F8273043F0030387F82730BA69E0
:104FE4007B699A4266D87B69BB6108233B620B23C9
:104FF400FB6197F826309B0087F8263051E0BB8C84
:105004007F2B14D9BB8C0021184601F04DFB0346BD
:10501400BB84BB8C002B04D0BB8C803B234AD35C69
:10502400BB8497F8273043F0020387F82730BB8C02
:10503400002B07D0BB8C19461D48FEF7FCFB03462A
:10504400002B08D05F23BB8497F8273043F0030379
:1050540087F827301BE0BB8C402B09D9BB8C5A2B1B
:1050640006D897F8263043F0020387F826300EE07E
:10507400BB8C602B0BD9BB8C7A2B08D897F82630C5
:1050840043F0010387F82630BB8C203BBB843B6A8A
:105094005A1C3A62BA8CD1B27A6813440A4683F82D
:1050A400242063E700BF06E0E4690008446A0008BE
:1050B400F069000800BF7B6893F82430E52B03D126
:1050C4007B68052283F82420FB69082B04D197F818
:1050D40026309B0087F8263097F8263003F00C031F
:1050E4000C2B05D097F8263003F00303032B05D1CE
:1050F40097F8273043F0020387F8273097F82730D2
:1051040003F00203002B17D197F8263003F00303B2
:10511400012B05D197F8273043F0100387F8273087
:1051240097F8263003F00C03042B05D197F82730A9
:1051340043F0080387F827307B6897F8272083F823
:105144002F20002318462837BD4680BD80B586B081
:1051540000AF786039607B683B613B691B68FB602A
:1051640002E03B6801333B603B681B782F2BF8D08F
:105174003B681B785C2BF4D03B6900229A603B6847
:105184001B781F2B0AD87B68802283F82F200021EC
:105194007868FFF7FDF80346FB7548E03B4619467F
:1051A4007868FFF71BFE0346FB75FB7D002B39D1A6
:1051B4007868FFF75AFC0346FB757B6893F82F3039
:1051C400FB72FB7D002B0AD0FB7D042B2CD1FB7AD8
:1051D40003F00403002B27D10523FB7524E0FB7A9D
:1051E40003F00403002B21D13B699B7903F01003E6
:1051F400002B02D10523FB7519E0FB6803F138018C
:105204007B685B69FA689289B3FBF2F000FB02F2F7
:105214009B1A0B441946F868FFF760FA02463B698B
:105224009A60BBE700BF02E000BF00E000BFFB7D67
:1052340018461837BD4680BD80B487B000AF78608B
:105244004FF0FF333B617B681B68002B31D07B68D8
:105254001B687B6102E07B6901337B617B691B789E
:105264001F2B03D97B691B783A2BF4D17B691B78FC
:105274003A2B1CD17B681B68FB60FB685A1CFA60E4
:105284001B78303BBB60BB68092B0ED8FA687B697E
:105294009A420AD1BB68002B07D1BB683B617B698A
:1052A40001337B617B687A691A603B6902E0002301
:1052B4003B613B6918461C37BD465DF8047B70476B
:1052C40080B582B000AF786039607B680022DA7004
:1052D4007B684FF0FF325A6339687868FEF776FCD2
:1052E4000346002B01D0042338E07B68383303F5F0
:1052F400FF731846FEF7BAF903461A464AF65523D1
:105304009A4201D0032329E07B6893F83830E92BD3
:1053140009D07B6893F83830EB2B1ED17B6893F867
:105324003A30902B19D17B68383336331846FEF760
:10533400B5F9034623F07F430A4A934201D100237F
:105344000CE07B68383352331846FEF7A7F903465E
:10535400054A934201D1002300E00223184608378E
:10536400BD4680BD464154004641543380B596B095
:1053740000AFF860B9601346FB71BB6800221A6085
:10538400F868FFF759FFF863FB6B002B01DA0B2376
:1053940065E29F4AFB6B52F82330BB63BB6B002B67
:1053A40001D10C235BE2BB68BA6B1A60FB7923F072
:1053B4000103FB71BB6B1B78002B1AD0BB6B5B78B2
:1053C4001846FEF7B5F8034687F8373097F83730B4
:1053D40003F00103002B0CD1FB79002B07D097F8C5
:1053E400373003F00403002B01D00A2337E20023F3
:1053F40035E2BB6B00221A70FB6BDAB2BB6B5A70DE
:10540400BB6B5B781846FEF7ADF8034687F8373078
:1054140097F8373003F00103002B01D003231EE279
:10542400FB79002B07D097F8373003F00403002BE7
:1054340001D00A2313E2BB6B5878BB6B0C331A46BA
:105444000221FEF7F5F80346002B01D0012306E202
:10545400BB6B9B89B3F5805F0DD8BB6B9B89B3F5A0
:10546400007F08D3BB6B9B891A46BB6B9B89013BAE
:105474001340002B01D00123F1E100233B65396D7A
:10548400B86BFFF71DFF034687F8573097F857307E
:10549400022B49D100233B641EE0BB6B03F13802AD
:1054A4003B6C1B0103F5DF7313443B633B6B043319
:1054B4001B78002B06D03B6B08331846FEF7EEF83A
:1054C400024600E000223B6C9B0058333B4443F807
:1054D400442C3B6C01333B643B6C032BDDD9002330
:1054E4003B643B6C002B02D03B6C013B3B643B6C4C
:1054F4009B0058333B4453F8443C3B653B6D002BC5
:1055040005D0396DB86BFFF7DBFE034600E00323DB
:1055140087F8573097F85730012B05D93B6C013386
:105524003B643B6C032BE2D997F85730042B01D131
:10553400012394E197F85730012B01D90D238EE113
:10554400BB6B38330B331846FEF790F803461A4604
:10555400BB6B9B899A4201D00D2380E1BB6B38332E
:1055640016331846FEF782F80346FB64FB6C002BE7
:1055740006D1BB6B383324331846FEF78FF8F86432
:10558400BB6BFA6C1A62BB6B93F84820BB6B9A70C6
:10559400BB6B9B78012B05D0BB6B9B78022B01D096
:1055A4000D235CE1BB6B9B781A46FB6C02FB03F397
:1055B400FB64BB6B93F845309AB2BB6B5A81BB6BEF
:1055C4005B89002B08D0BB6B5B891A46BB6B5B897C
:1055D400013B1340002B01D00D2340E1BB6B38335A
:1055E40011331846FEF742F803461A46BB6B1A817C
:1055F400BB6B1B89BA6B9289520992B2B3FBF2F16D
:1056040001FB02F29B1A9BB2002B03D00D2326E16F
:105614005C250020BB6B383313331846FEF726F89D
:105624000346BB64BB6C002B06D1BB6B3833203301
:105634001846FEF733F8B864BB6B38330E3318469C
:10564400FEF714F80346FB85FB8D002B01D10D23D7
:1056540005E1FA8DFB6C1344BA6B1189BA6B92891C
:10566400520992B2B1FBF2F292B21344BB62BA6C29
:10567400BB6A9A4201D20D23F1E0BA6CBB6AD31A19
:10568400BA6B5289B3FBF2F37B627B6A002B01D1C4
:105694000D23E4E0032387F857307B6A4FF6F57255
:1056A400934202D8022387F857307B6A40F6F5729A
:1056B400934202D8012387F857307B6A9A1CBB6B4C
:1056C400DA61BB6B3A6D5A62FA8D3B6D1A44BB6B5F
:1056D4009A623A6DBB6A1A44BB6B1A6397F85730E7
:1056E400032B1ED1BB6B38332A331846FDF7BEFF9C
:1056F4000346002B01D00D23B1E0BB6B1B89002BAB
:1057040001D00D23ABE0BB6B38332C331846FDF7C7
:10571400C5FF0246BB6BDA62BB6BDB699B007B6433
:105724001FE0BB6B1B89002B01D10D2397E0BB6BE2
:105734009A6AFB6C1A44BB6BDA6297F85730022BF7
:1057440003D1BB6BDB695B000AE0BB6BDA69134610
:105754005B0013445A08BB6BDB6903F00103134479
:105764007B64BB6B1A6ABB6B9B8919467B6C0B44CD
:10577400013BB96B8989B3FBF1F39A4201D20D2342
:105784006DE0BB6B4FF0FF329A61BB6B9A69BB6BE8
:105794005A61BB6B80221A7197F85730032B49D199
:1057A400BB6B383330331846FDF760FF0346012BDB
:1057B40040D13B6D01331946B86BFEF707FA034637
:1057C400002B37D1BB6B00221A71BB6B383303F546
:1057D400FF731846FDF74AFF03461A464AF6552357
:1057E4009A4227D1BB6B38331846FDF757FF03465F
:1057F4001D4A93421ED1BB6B383303F5F27318462E
:10580400FDF74CFF0346194A934213D1BB6B38335F
:1058140003F5F4731846FDF741FF0246BB6B9A612A
:10582400BB6B383303F5F6731846FDF737FF0246B2
:10583400BB6B5A61BB6B97F857201A700C4B1B88D3
:1058440001339AB20A4B1A80094B1A88BB6BDA806F
:10585400BB6B084A1A61B86BFEF750F9002318466F
:105864005837BD4680BD00BF5252614172724161DA
:10587400602500208425002080B584B000AF7860C6
:1058840039600923FB737B68002B1CD07B681B6881
:10589400002B18D07B681B681B78002B13D07B6807
:1058A4009A887B681B68DB889A420CD17B681B68EA
:1058B4005B781846FDF73CFE034603F00103002B1A
:1058C40001D10023FB73FB7B002B02D17B681B6897
:1058D40000E000233A681360FB7B18461037BD468E
:1058E40080BD000080B588B000AFF860B960134691
:1058F400FB71BB683B6107F110031846FFF79CFC82
:10590400F861FB69002B01DA0B232BE0174AFB69D2
:1059140052F82330BB61BB69002B05D0B869FEF790
:10592400EDF8BB6900221A70FB68002B02D0FB68FB
:1059340000221A70FA680D49FB6941F82320FB68BC
:10594400002B02D0FB79012B01D000230AE007F1E0
:105954000C0107F1080300221846FFF707FD034670
:10596400FB75FB7D18462037BD4680BD5C250020B5
:1059740080B59AB000AFF860B9601346FB71FB685C
:10598400002B01D10923BBE1FB7903F03F03FB7139
:10599400FA7907F1140107F108031846FFF7E6FC4A
:1059A400034687F8673097F86730002B40F09F81F3
:1059B4007B69BB61BA6807F1180311461846FFF703
:1059C400C5FB034687F8673097F86730002B1AD178
:1059D40097F847305BB2002B03DA062387F8673069
:1059E40011E0FB7923F00103002B14BF01230023F2
:1059F400DBB21A4607F1180311461846FDF736FFC5
:105A0400034687F86730FB7903F01C03002B7FD033
:105A140097F86730002B17D097F86730042B0ED116
:105A2400FDF780FF0346002B06D007F11803184644
:105A3400FFF7DCF8034600E0122387F86730FB79B0
:105A440043F00803FB7110E0BB7F03F01103002B4C
:105A540003D0072387F8673007E0FB7903F00403DA
:105A6400002B02D0082387F8673097F86730002BA3
:105A740068D1FB7903F00803002B63D0FDF7F6FC33
:105A8400B865BB6B0E33B96D1846FDF745FEBB6BAD
:105A94001633B96D1846FDF73FFEBB6B0B3320225E
:105AA4001A707B69BA6B11461846FEF717FE7865C3
:105AB4007B69B96B00221846FEF72FFEBB6B1C33C3
:105AC40000211846FDF728FE7B690122DA707B6D00
