:020000040800F2
:1000000000800120951B0008851A00088F1A00083F
:10001000951A00089B1A0008A11A000800000000A9
:10002000000000000000000000000000A71A000807
:10003000B51A000800000000C31A0008D11A000811
:10004000E51B0008E51B0008E51B0008E51B000890
:10005000E51B0008E51B0008E51B0008E51B000880
:10006000E51B0008E51B0008E51B0008E51B000870
:10007000E51B0008E51B0008E51B0008E51B000860
:10008000E51B0008E51B0008E51B00080000000058
:10009000000000000000000000000000E51B000858
:1000A000E51B0008E51B0008E51B0008E51B000830
:1000B000E51B0008E51B0008E51B0008E51B000820
:1000C000E51B0008E51B0008E51B0008E51B000810
:1000D000E51B0008E51B0008E51B00080000000008
:1000E000E51B0008E51B0008E51B000800000000F8
:1000F000000000000000000000000000E51B0008F8
:1001000000000000E51B0008E51B0008E51B0008D7
:1001100000000000000000000000000000000000DF
:10012000E51B0008E51B0008E51B0008E51B0008AF
:10013000E51B0008000000000000000000000000B7
:10014000000000000000000000000000E51B0008A7
:10015000E51B0008E51B0008E51B0008E51B00087F
:10016000E51B0008E51B000800000000000000007F
:10017000000000000000000000000000000000007F
:1001800000000000E51B0008000000000000000067
:04019000E51B000863
:1001A00010B5054C237833B9044B13B10448AFF3B1
:1001B00000800123237010BD880000200000000093
:1001C000AC52000808B5034B1BB103490348AFF319
:1001D000008008BD000000008C000020AC52000828
:1001E000034613F8012B002AFBD1181A0138704777
:1001F00001F0FF01102A2BDB10F0070F08D010F8D8
:10020000013B013A8B422DD010F0070F42B3F6D1DB
:10021000F0B441EA012141EA014122F007047FF0F4
:1002200000070023F0E80256083C85EA010586EA4B
:10023000010685FA47F5A3FA87F586FA47F6A5FA87
:1002400087F68EB9EED1F0BC01F0FF0102F0070293
:1002500032B110F8013B013A83EA010313B1F8D13E
:100260000020704701387047002D06BF354603381F
:10027000073815F0010F07D1013015F4807F02BF58
:10028000013015F4C03F0130F0BC0138704700BFA9
:1002900070B54FF0FF0C4CF4E06C1CEA11541DBF1C
:1002A0001CEA135594EA0C0F95EA0C0F00F0DEF8E7
:1002B0002C4481EA030621EA4C5123EA4C5350EACC
:1002C000013518BF52EA033541F4801143F480131D
:1002D00038D0A0FB02CE4FF00005E1FB02E506F0AE
:1002E0000042E0FB03E54FF00006E1FB03569CF003
:1002F000000F18BF4EF0010EA4F1FF04B6F5007F09
:1003000064F5407404D25FEA4E0E6D4146EB06067A
:1003100042EAC62141EA55514FEAC52040EA5E5003
:100320004FEACE2EB4F1FD0C88BFBCF5E06F1ED8AD
:10033000BEF1004F08BF5FEA500E50F1000041EBE4
:10034000045170BD06F0004646EA010140EA020091
:1003500081EA0301B4EB5C04C2BFD4EB0C0541EAB3
:10036000045170BD41F480114FF0000E013C00F3C8
:10037000AB8014F1360FDEBF002001F0004170BDEC
:10038000C4F10004203C35DA0C341BDC04F1140405
:10039000C4F1200500FA05F320FA04F001FA05F291
:1003A00040EA020001F0004221F0004110EBD3705E
:1003B00021FA04F642EB06015EEA430E08BF20EA8A
:1003C000D37070BDC4F10C04C4F1200500FA04F32D
:1003D00020FA05F001FA04F240EA020001F00041BF
:1003E00010EBD37041F100015EEA430E08BF20EA32
:1003F000D37070BDC4F1200500FA05F24EEA020E7A
:1004000020FA04F301FA05F243EA020321FA04F0A8
:1004100001F0004121FA04F220EA020000EBD3705F
:100420005EEA430E08BF20EAD37070BD94F0000F5F
:100430000FD101F00046400041EB010111F4801F93
:1004400008BF013CF7D041EA060195F0000F18BF44
:10045000704703F00046520043EB030313F4801F80
:1004600008BF013DF7D043EA0603704794EA0C0F3A
:100470000CEA135518BF95EA0C0F0CD050EA410650
:1004800018BF52EA4306D1D181EA030101F00041CD
:100490004FF0000070BD50EA410606BF10461946F5
:1004A00052EA430619D094EA0C0F02D150EA013601
:1004B00013D195EA0C0F05D152EA03361CBF104642
:1004C00019460AD181EA030101F0004141F0FE41E1
:1004D00041F470014FF0000070BD41F0FE4141F465
:1004E000780170BD81F0004102E000BF83F000435D
:1004F00030B54FEA41044FEA430594EA050F08BFBF
:1005000090EA020F1FBF54EA000C55EA020C7FEA82
:10051000645C7FEA655C00F0E2804FEA5454D4EBFF
:100520005555B8BF6D420CDD2C4480EA020281EAC9
:10053000030382EA000083EA010180EA020281EA01
:100540000303362D88BF30BD11F0004F4FEA013153
:100550004FF4801C4CEA113102D0404261EB410162
:1005600013F0004F4FEA03334CEA133302D05242E8
:1005700063EB430394EA050F00F0A780A4F10104A4
:10058000D5F1200E0DDB02FA0EFC22FA05F28018DE
:1005900041F1000103FA0EF2801843FA05F35941C4
:1005A0000EE0A5F120050EF1200E012A03FA0EFC43
:1005B00028BF4CF0020C43FA05F3C01851EBE3716D
:1005C00001F0004507D54FF0000EDCF1000C7EEB8A
:1005D00000006EEB0101B1F5801F1BD3B1F5001FC8
:1005E0000CD349085FEA30004FEA3C0C04F10104E7
:1005F0004FEA445212F5800F80F09A80BCF1004F10
:1006000008BF5FEA500C50F1000041EB045141EA91
:10061000050130BD5FEA4C0C404141EB0101013C5A
:1006200028BFB1F5801FE9D291F0000F04BF014649
:100630000020B1FA81F308BF2033A3F10B03B3F11B
:1006400020020CDA0C3208DD02F1140CC2F10C02AB
:1006500001FA0CF021FA02F10CE002F11402D8BF09
:10066000C2F1200C01FA02F120FA0CFCDCBF41EAD5
:100670000C019040E41AA2BF01EB0451294330BDA4
:100680006FEA04041F3C1CDA0C340EDC04F1140481
:10069000C4F1200220FA04F001FA02F340EA030058
:1006A00021FA04F345EA030130BDC4F10C04C4F19E
:1006B000200220FA02F001FA04F340EA030029467E
:1006C00030BD21FA04F0294630BD94F0000F83F4C8
:1006D000801306BF81F480110134013D4EE77FEAAB
:1006E000645C18BF7FEA655C29D094EA050F08BFF7
:1006F00090EA020F05D054EA000C04BF19461046D8
:1007000030BD91EA030F1EBF0021002030BD5FEA1B
:10071000545C05D14000494128BF41F0004130BD43
:1007200014F580043CBF01F5801130BD01F0004597
:1007300045F0FE4141F470014FF0000030BD7FEA0A
:10074000645C1ABF194610467FEA655C1CBF0B4605
:10075000024650EA013406BF52EA033591EA030F1C
:1007600041F4002130BD00BF90F0000F04BF002114
:10077000704730B54FF4806404F132044FF0000547
:100780004FF0000150E700BF90F0000F04BF0021C0
:10079000704730B54FF4806404F1320410F0004526
:1007A00048BF40424FF000013EE700BF42004FEA21
:1007B000E2014FEA31014FEA02701FBF12F07F439E
:1007C00093F07F4F81F06051704732F07F4208BF55
:1007D000704793F07F4F04BF41F40021704730B55C
:1007E0004FF4607401F0004521F000411CE700BFA8
:1007F00050EA010208BF704730B54FF000050AE02B
:1008000050EA010208BF704730B511F0004502D52B
:10081000404261EB41014FF4806404F132045FEA2D
:10082000915C3FF4D8AE4FF003025FEADC0C18BFD6
:1008300003325FEADC0C18BF033202EBDC02C2F1C8
:10084000200300FA03FC20FA02F001FA03FE40EA5A
:100850000E0021FA02F11444BDE600BF4A0011D295
:1008600012F5001211D20DD56FF47873B3EB62520A
:100870000ED44FEAC12343F0004343EA505323FA16
:1008800002F070474FF00000704750EA013002D18B
:100890004FF0FF3070474FF00000704753B94AB92E
:1008A000002908BF00281CBF4FF0FF314FF0FF3078
:1008B00000F074B9ADF1080C6DE904CE00F006F853
:1008C000DDF804E0DDE9022304B070472DE9F047CC
:1008D000089D04468E46002B4DD18A42944669D924
:1008E000B2FA82F252B101FA02F3C2F1200120FA07
:1008F00001F10CFA02FC41EA030E94404FEA1C4855
:10090000210CBEFBF8F61FFA8CF708FB16E341EA50
:10091000034306FB07F199420AD91CEB030306F1D6
:10092000FF3080F01F81994240F21C81023E6344F7
:100930005B1AA4B2B3FBF8F008FB103344EA03449B
:1009400000FB07F7A7420AD91CEB040400F1FF33B0
:1009500080F00A81A74240F207816444023840EAED
:100960000640E41B00261DB1D4400023C5E9004326
:100970003146BDE8F0878B4209D9002D00F0EF80A9
:100980000026C5E9000130463146BDE8F087B3FADC
:1009900083F6002E4AD18B4202D3824200F2F980C4
:1009A000841A61EB030301209E46002DE0D0C5E9C7
:1009B000004EDDE702B9FFDEB2FA82F2002A40F013
:1009C0009280A1EB0C014FEA1C471FFA8CFE012616
:1009D000200CB1FBF7F307FB131140EA01410EFBBA
:1009E00003F0884208D91CEB010103F1FF3802D261
:1009F000884200F2CB804346091AA4B2B1FBF7F05B
:100A000007FB101144EA01440EFB00FEA64508D97D
:100A10001CEB040400F1FF3102D2A64500F2BB80BA
:100A20000846A4EB0E0440EA03409CE7C6F1200709
:100A3000B34022FA07FC4CEA030C20FA07F401FA4F
:100A400006F31C43F9404FEA1C4900FA06F3B1FBD8
:100A5000F9F8200C1FFA8CFE09FB181140EA01413D
:100A600008FB0EF0884202FA06F20BD91CEB0101DA
:100A700008F1FF3A80F08880884240F28580A8F132
:100A800002086144091AA4B2B1FBF9F009FB101184
:100A900044EA014100FB0EFE8E4508D91CEB010122
:100AA00000F1FF346CD28E456AD90238614440EAC5
:100AB0000840A0FB0294A1EB0E01A142C846A64645
:100AC00056D353D05DB1B3EB080261EB0E0101FACE
:100AD00007F722FA06F3F1401F43C5E9007100262B
:100AE0003146BDE8F087C2F12003D8400CFA02FC81
:100AF00021FA03F3914001434FEA1C471FFA8CFE91
:100B0000B3FBF7F007FB10360B0C43EA064300FB80
:100B10000EF69E4204FA02F408D91CEB030300F11E
:100B2000FF382FD29E422DD9023863449B1B89B2D5
:100B3000B3FBF7F607FB163341EA034106FB0EF35E
:100B40008B4208D91CEB010106F1FF3816D28B420B
:100B500014D9023E6144C91A46EA004638E72E46D7
:100B6000284605E70646E3E61846F8E64B45A9D2CF
:100B7000B9EB020864EB0C0E0138A3E74646EAE73E
:100B8000204694E74046D1E7D0467BE7023B6144EC
:100B900032E7304609E76444023842E7704700BF55
:100BA00080B500AF00224FF40041024801F01CFB69
:100BB00000BF80BD0000024080B500AF01224FF4AD
:100BC0000041024801F010FB00BF80BD0000024060
:100BD00080B582B000AF0346FB7100BF084802F049
:100BE00003FB0346012BF9D1F91D4FF47A7301225F
:100BF000034802F01BF800BF0837BD4680BD00BFA8
:100C0000A800002080B584B002AFFF23FB71002351
:100C1000BB7100BF094802F0E7FA0346012BF9D186
:100C2000BA1DF91D4FF47A7300930123034802F0B3
:100C300039F9BB7918460837BD4680BDA8000020A9
:100C400080B582B000AF7860FFF7DCFF03461A463C
:100C50007B681A7000BF0837BD4680BD80B582B082
:100C600000AF0B4B32221A70FFF7CCFFFFF7CAFF21
:100C70000346FB71FB79FF2B04D0054B1B78DBB2DD
:100C8000002BF3D1FB7918460837BD4680BD00BF65
:100C90009215002080B586B000AF41F6FF737B61EE
:100CA000FFF78AFF00233B6105E0FF20FFF790FF7D
:100CB0003B6901333B613B69092BF6DDFFF770FFB0
:100CC00040233B7100237B710023BB710023FB7128
:100CD00000233B7295237B720023FB6009E03A1DE1
:100CE000FB6813441B781846FFF772FFFB6801335B
:100CF000FB60FB68052BF2DD02E07B69013B7B6159
:100D0000FFF780FF0346012B02D07B69002BF4D153
:100D1000FFF752FFFF20FFF75BFF034B01221A7022
:100D200000BF1837BD4680BDA500002080B400AFCD
:100D3000034B00221A7000BFBD465DF8047B70476C
:100D4000A500002080B400AF034B1B781846BD46B9
:100D50005DF8047B704700BFA500002080B584B01B
:100D600000AF78603960174B0A221A70FFF74AFF0C
:100D70000346FB73FB7BFF2B04D1124B1B78DBB2CA
:100D8000002BF3D1FB7BFE2B01D0002316E07B6808
:100D90005A1C7A601846FFF753FF7B685A1C7A602A
:100DA0001846FFF74DFF3B68023B3B603B68002B5A
:100DB000EDD1FFF727FFFFF725FF01231846103776
:100DC000BD4680BD9115002080B584B000AF78602D
:100DD0000B46FB7000237B73FFF740FF0346FF2B9E
:100DE00001D0002340E0FB781846FFF7F1FEFB78C6
:100DF000FD2B31D00023BB737B685A1C7A601B78B3
:100E00001846FFF7E5FE7B685A1C7A601B78184687
:100E1000FFF7DEFEBB7B013BBB73BB7B002BEBD143
:100E2000FFF7F0FEFFF7EEFE0BE0FFF7EBFE0346E9
:100E3000FB73FB7B03F01F03052B06D07B7B013389
:100E40007B737B7B402BF0D900E000BF00BFFFF736
:100E5000D9FE0346002BFAD0FB7B03F01F03052BC2
:100E600001D1012300E0002318461037BD4680BDA4
:100E700080B584B000AF03463960FB71FFF7EEFE2A
:100E80000346FF2B01D0FF2340E0FB791846FFF714
:100E90009FFE3B681B0EDBB21846FFF799FE3B68CE
:100EA0001B0CDBB21846FFF793FE3B681B0ADBB254
:100EB0001846FFF78DFE3B68DBB21846FFF788FE49
:100EC0000023FB73FB79402B01D19523FB73FB7946
:100ED000482B01D18723FB73FB7B1846FFF778FE75
:100EE000FB794C2B01D1FFF78DFE0A23BB73FFF773
:100EF00089FE03467B7397F90D30002B05DABB7B27
:100F0000013BBB73BB7B002BF1D17B7B18461037B9
:100F1000BD4680BD90B585B000AF0346FB71FB793F
:100F2000002B01D00123D5E06C4B1B78DBB203F022
:100F30000203002B03D0694B1B78DBB2CAE0FFF73A
:100F4000A9FEFFF72DFE0023BB7300214020FFF711
:100F50008FFF0346012B40F0A580614B64221A707D
:100F60004FF4D5714820FFF783FF0346012B58D17A
:100F70000023FB730CE0FC7BFFF744FE03461A469C
:100F800004F110033B4403F8082CFB7B0133FB7393
:100F9000FB7B032BEFD9BB7A012B40F08380FB7ADC
:100FA000AA2B7FD100217720FFF762FF0346012B98
:100FB00007D84FF080416920FFF75AFF0346002B06
:100FC00005D0474B1B78DBB2002BEBD100E000BF14
:100FD000434B1B78DBB2002B64D000217A20FFF753
:100FE00047FF0346002B5DD10023FB730CE0FC7B25
:100FF000FFF708FE03461A4604F110033B4403F8CA
:10100000082CFB7B0133FB73FB7B032BEFD93B7A73
:1010100003F04003002B01D0062300E00223BB7342
:1010200040E000217720FFF723FF0346012B08D87B
:1010300000216920FFF71CFF0346012B01D8022382
:1010400000E00123BB73BB7B022B0ED10021772074
:10105000FFF70EFF0346012B0ED800216920FFF792
:1010600007FF0346002B07D10DE000214120FFF7C9
:10107000FFFE0346002B05D0194B1B78DBB2002B7B
:10108000E1D100E000BF164B1B78DBB2002B07D08C
:101090004FF400715020FFF7EBFE0346002B01D008
:1010A0000023BB730F4ABB7B1370FFF785FDFFF76F
:1010B000A9FDBB7B002B08D0084B1B78DBB223F0CB
:1010C0000103DAB2054B1A7001E0FFF72FFE034B64
:1010D0001B78DBB218461437BD4690BD00000020D7
:1010E00091150020A400002080B483B000AF034617
:1010F000FB71FB79002B01D0012302E0044B1B782C
:10110000DBB218460C37BD465DF8047B704700BF64
:101110000000002080B584B000AFB9607A603B6009
:101120000346FB73FB7B002B02D13B68002B01D1F4
:10113000042351E02A4B1B78DBB203F00103002BA0
:1011400001D0032348E0274B1B7803F00403002B56
:1011500002D17B685B027B60FFF722FD3B68012BBD
:1011600011D179685120FFF783FE0346002B29D166
:101170004FF40071B868FFF7F1FD0346002B21D052
:1011800000233B601EE079685220FFF771FE0346A2
:10119000002B17D14FF40071B868FFF7DFFD03464D
:1011A000002B0AD0BB6803F50073BB603B68013BB2
:1011B0003B603B68002BEDD100E000BF00214C20DC
:1011C000FFF756FEFFF7F8FCFFF71CFD3B68002B0E
:1011D00014BF01230023DBB218461037BD4680BD83
:1011E00000000020A400002080B584B000AFB960EA
:1011F0007A603B600346FB73FB7B002B02D13B68AC
:10120000002B01D104236BE0374B1B78DBB203F0DA
:101210000103002B01D0032362E0334B1B78DBB2C8
:1012200003F00403002B01D0022359E02F4B1B785D
:1012300003F00403002B02D17B685B027B60FFF7A5
:10124000AFFC3B68012B10D179685820FFF710FEE6
:101250000346002B3AD1FE21B868FFF7B5FD0346DF
:10126000002B33D000233B6030E0204B1B7803F091
:101270000203002B07D000217720FFF7F9FD396822
:101280005720FFF7F5FD79685920FFF7F1FD034678
:10129000002B1BD1FC21B868FFF796FD0346002BFD
:1012A0000AD0BB6803F50073BB603B68013B3B6041
:1012B0003B68002BEED100E000BFFD210020FFF7CE
:1012C00083FD0346002B01D101233B60FFF774FC33
:1012D000FFF798FC3B68002B14BF01230023DBB20F
:1012E00018461037BD4680BD00000020A400002035
:1012F00090B58BB000AF03463A60FB710B46BB71F3
:101300003B683B62FB79002B01D004231BE10123E6
:1013100087F82730BB79052B29D13B6A1B78022B34
:1013200017D0022B1FDC002B02D0012B0BD01AE0B0
:10133000FFF708FD0346002B01D0FFF7F7FC002361
:1013400087F82730FDE0FFF7A5FC002387F827305A
:10135000F7E03B6A5C1CFFF7F5FC034623700023B3
:1013600087F82730EDE0042387F82730E9E0784B51
:101370001B78DBB203F00103002B01D00323E2E072
:10138000FFF70EFCBB790D2B00F2CC8001A252F8C6
:1013900023F000BF8F140008CD1300087F1400084D
:1013A0002515000825150008251500082515000835
:1013B0002515000825150008251500082515000825
:1013C000A1140008C5140008E914000800214920F0
:1013D000FFF74EFD0346002B40F0A88007F10C03F9
:1013E00010211846FFF7BAFC0346002B00F09E8040
:1013F0003B7B9B09DBB2012B0ED17B7D9AB23B7DFF
:101400009BB21B029BB213449BB20133FB83FB8B49
:101410009A023B681A602EE07B7C03F00F03DAB27D
:10142000BB7DDB09DBB21344DAB27B7D5B00DBB250
:1014300003F00603DBB21344DBB2023387F8263035
:101440003B7D9B09DBB29AB2FB7C9BB29B009BB2BB
:1014500013449AB2BB7C9B029BB203F440639BB2E1
:1014600013449BB20133FB83FA8B97F82630093B78
:101470009A403B681A60002387F8273056E03B68A3
:101480004FF400721A80002387F8273055E0FFF7E9
:10149000E5FB0346FF2B4BD1002387F8273047E0BD
:1014A00000214920FFF7E4FC0346002B42D1102124
:1014B000386AFFF753FC0346002B3BD0002387F824
:1014C000273037E000214A20FFF7D2FC0346002BEB
:1014D00032D11021386AFFF741FC0346002B2BD094
:1014E000002387F8273027E000217A20FFF7C0FC8F
:1014F0000346002B16D1002387F826300BE03C6A08
:10150000631C3B62FFF77EFB0346237097F826308F
:10151000013387F8263097F82630032BEFD90023C4
:1015200087F82730042387F8273006E000BF04E05F
:1015300000BF02E000BF00E000BFFFF73DFBFFF788
:1015400061FB97F8273018462C37BD4690BD00BF89
:101550000000002080B584B000AF78607868FEF7A6
:101560003FFE0346FB73FB7B9AB24FF4FA63796844
:10157000034801F05EFF00BF1037BD4680BD00BFCD
:101580000001002080B500AF00F02EFB00F086F8CF
:1015900000F044F900F0E2F800F016F902F0BEFAAB
:1015A00000223149314803F089F803461A46304B8E
:1015B0001A702F4B1B78002B03D02E48FFF7CAFF61
:1015C00002E02D48FFF7C6FF2C4A2D49264803F0BC
:1015D000BBF82A4B1B68DB69023B284A1268528918
:1015E00002FB03F31846FFF7BFF84FF00002254B4C
:1015F000FEF74EFE02460B4610461946FFF72EF93F
:101600000346214A1360204B1B68DB0D1E4A136002
:101610001A4B1B685B891A46194B1B6802FB03F3C4
:101620001846FFF7A1F84FF00002164BFEF730FE08
:1016300002460B4610461946FFF710F90346134AB7
:101640001360124B1B681A461149124803F0C0F987
:101650001048FFF77FFF1048FFF77CFF4FF47A70C8
:1016600000F034FBF7E700BFC4520008440100203B
:101670007C110020C8520008E452000880150020A8
:10168000841500200000E03F881500208C15002004
:1016900004530008801100202053000880B594B046
:1016A00000AF07F1200330220021184603F088F92B
:1016B00007F10C0300221A605A609A60DA601A611E
:1016C0000023BB60234B1B6C224A43F080531364FE
:1016D000204B1B6C03F08053BB60BB6800237B6016
:1016E0001D4B1B6823F440431B4A43F40043136023
:1016F000194B1B6803F440437B607B6801233B620A
:101700004FF480337B620023BB6307F1200318464C
:1017100000F084FD0346002B01D000F0D1F80F2328
:10172000FB6001233B6100237B610023BB6100233D
:10173000FB6107F10C030021184600F0E7FF0346A8
:10174000002B01D000F0BCF801F0C6F800BF503704
:10175000BD4680BD003802400070004080B500AF3B
:10176000174B184A1A60164B4FF482725A60144B8A
:1017700000229A60124B0022DA60114B00221A619B
:101780000F4B00225A610E4B4FF400729A610C4BC2
:101790000022DA610A4B00221A62094B00225A62C7
:1017A000074B00229A62064B0A22DA62044801F0D3
:1017B000B4F90346002B01D000F082F800BF80BDD1
:1017C000A8000020003C004080B500AF114B124A39
:1017D0001A60104B4FF416525A600E4B00229A605A
:1017E0000C4B0022DA600B4B00221A61094B0C22D1
:1017F0005A61084B00229A61064B0022DA610548C3
:1018000001F0CAFD0346002B01D000F059F800BFDB
:1018100080BD00BF000100200010014080B588B0ED
:1018200000AF07F10C0300221A605A609A60DA6078
:101830001A610023BB60204B1B6B1F4A43F08003DF
:1018400013631D4B1B6B03F08003BB60BB6800235D
:101850007B60194B1B6B184A43F001031363164B53
:101860001B6B03F001037B607B6800233B60124B22
:101870001B6B114A43F0020313630F4B1B6B03F006
:1018800002033B603B6800224FF400410B4800F02C
:10189000ABFC4FF40043FB6001233B6100237B6101
:1018A0000023BB6107F10C031946044800F018FB44
:1018B00000BF2037BD4680BD003802400000024016
:1018C00080B400AF72B600BFFEE7000080B483B002
:1018D00000AF00237B60104B5B6C0F4A43F48043E6
:1018E00053640D4B5B6C03F480437B607B68002387
:1018F0003B60094B1B6C084A43F080531364064B52
:101900001B6C03F080533B603B6800BF0C37BD4647
:101910005DF8047B704700BF0038024080B58AB094
:1019200000AF786007F1140300221A605A609A60D1
:10193000DA601A617B681B68194A93422BD1002335
:101940003B61184B1B6C174A43F400431364154B5F
:101950001B6C03F400433B613B690023FB60114BAC
:101960001B6B104A43F0020313630E4B1B6B03F017
:101970000203FB60FB6838237B610223BB61002309
:10198000FB6103233B6206237B6207F114031946C4
:10199000054800F0A5FA00BF2837BD4680BD00BF4E
:1019A000003C0040003802400004024080B58AB08C
:1019B00000AF786007F1140300221A605A609A6041
:1019C000DA601A617B681B68194A93422CD10023A4
:1019D0003B61184B5B6C174A43F010035364154B83
:1019E0005B6C03F010033B613B690023FB60114B10
:1019F0001B6B104A43F0010313630E4B1B6B03F088
:101A00000103FB60FB684FF4C0637B610223BB6191
:101A10000023FB6103233B6207237B6207F114036E
:101A20001946054800F05CFA00BF2837BD4680BD66
:101A300000100140003802400000024080B400AFB6
:101A40000E4B1B78DBB2002B06D00C4B1B78DBB2A5
:101A5000013BDAB2094B1A70094B1B78DBB2002B41
:101A600006D0074B1B78DBB2013BDAB2044B1A708D
:101A700000BFBD465DF8047B704700BF9115002094
:101A80009215002080B500AF01F02CF8FEE780B47D
:101A900000AFFEE780B400AFFEE780B400AFFEE722
:101AA00080B400AFFEE780B400AF00BFBD465DF874
:101AB000047B704780B400AF00BFBD465DF8047B77
:101AC000704780B400AF00BFBD465DF8047B70472F
:101AD00080B500AF0A4B1B78DBB20133DAB2084B9A
:101AE0001A70074B1B78DBB2092B04D9044B002278
:101AF0001A70FFF7A3FF00F0C9F800BF80BD00BF58
:101B00009015002080B586B000AF7860144A154B60
:101B1000D31A7B617B693B61134B1B68002B02D19D
:101B2000114B124A1A60104B1A687B6813443A69C9
:101B30009A4207D202F01AFF03460C221A604FF0B5
:101B4000FF3309E0084B1B68FB60074B1A687B6892
:101B50001344054A1360FB6818461837BD4680BD1C
:101B6000008001200004000094150020E8170020E8
:101B700080B400AF064BD3F88830054A43F47003B5
:101B8000C2F8883000BFBD465DF8047B704700BFD7
:101B900000ED00E0DFF834D00D480E490E4A002376
:101BA00002E0D458C4500433C4188C42F9D30B4A11
:101BB0000B4C002301E013600432A242FBD3FFF779
:101BC000D7FF02F0D9FEFFF7DDFC7047008001204F
:101BD00000000020880000208C53000888000020AE
:101BE000E8170020FEE7000080B500AF0E4B1B6831
:101BF0000D4A43F4007313600B4B1B680A4A43F40D
:101C000080631360084B1B68074A43F480731360BA
:101C1000032000F031F90F2000F008F8FFF756FE1E
:101C20000023184680BD00BF003C024080B582B052
:101C300000AF7860124B1A68124B1B7819464FF4AC
:101C40007A73B3FBF1F3B2FBF3F3184600F03BF900
:101C50000346002B01D001230EE07B680F2B0AD82E
:101C6000002279684FF0FF3000F011F9064A7B68D6
:101C70001360002300E0012318460837BD4680BDED
:101C8000040000200C0000200800002080B400AFF9
:101C9000064B1B781A46064B1B681344044A136014
:101CA00000BFBD465DF8047B704700BF0C000020FC
:101CB0009815002080B400AF034B1B681846BD4642
:101CC0005DF8047B704700BF9815002080B584B094
:101CD00000AF7860FFF7EEFFB8607B68FB60FB68E1
:101CE000B3F1FF3F05D00A4B1B781A46FB6813443B
:101CF000FB6000BFFFF7DEFF0246BB68D31AFA683D
:101D00009A42F7D800BF00BF1037BD4680BD00BF64
:101D10000C00002080B485B000AF78607B6803F0D1
:101D20000703FB600C4BDB68BB60BA684FF6FF0330
:101D30001340BB60FB681A02BB68134343F0BF63E8
:101D400043F40033BB60044ABB68D36000BF143760
:101D5000BD465DF8047B704700ED00E080B400AF45
:101D6000044BDB681B0A03F007031846BD465DF809
:101D7000047B704700ED00E080B483B000AF034601
:101D80003960FB7197F90730002B0ADB3B68DAB248
:101D90000C4997F907301201D2B20B4483F80023A3
:101DA0000AE03B68DAB20849FB7903F00F03043B11
:101DB0001201D2B20B441A7600BF0C37BD465DF853
:101DC000047B704700E100E000ED00E080B489B0E2
:101DD00000AFF860B9607A60FB6803F00703FB614D
:101DE000FB69C3F10703042B28BF0423BB61FB6914
:101DF0000433062B02D9FB69033B00E000237B611F
:101E00004FF0FF32BB6902FA03F3DA43BB681A40B2
:101E10007B699A404FF0FF317B6901FA03F3D943A4
:101E20007B680B40134318462437BD465DF8047B9E
:101E30007047000080B582B000AF78607B68013BDE
:101E4000B3F1807F01D301230FE00A4A7B68013B95
:101E500053600F214FF0FF30FFF78EFF054B00223C
:101E60009A60044B07221A60002318460837BD46C3
:101E700080BD00BF10E000E080B582B000AF7860A8
:101E80007868FFF747FF00BF0837BD4680BD80B5C3
:101E900086B000AF0346B9607A60FB7300237B61B4
:101EA000FFF75CFF78617A68B9687869FFF78EFFA1
:101EB000024697F90F3011461846FFF75DFF00BF45
:101EC0001837BD4680BD80B582B000AF78607868B5
:101ED000FFF7B0FF034618460837BD4680BD000037
:101EE00080B489B000AF7860396000237B61002343
:101EF0003B610023BB610023FB6159E10122FB69C7
:101F000002FA03F37B613B681B687A6913403B610B
:101F10003A697B699A4240F048813B685B6803F00C
:101F20000303012B05D03B685B6803F00303022B1E
:101F300030D17B689B68BB61FB695B00032202FABE
:101F400003F3DB43BA691340BB613B68DA68FB69A2
:101F50005B0002FA03F3BA691343BB617B68BA6999
:101F60009A607B685B68BB610122FB6902FA03F33C
:101F7000DB43BA691340BB613B685B681B0903F034
:101F80000102FB6902FA03F3BA691343BB617B6880
:101F9000BA695A603B685B6803F00303032B17D0F0
:101FA0007B68DB68BB61FB695B00032202FA03F319
:101FB000DB43BA691340BB613B689A68FB695B000D
:101FC00002FA03F3BA691343BB617B68BA69DA604A
:101FD0003B685B6803F00303022B23D1FB69DA083B
:101FE0007B68083253F82230BB61FB6903F00703BA
:101FF0009B000F2202FA03F3DB43BA691340BB6173
:102000003B681A69FB6903F007039B0002FA03F3BC
:10201000BA691343BB61FB69DA087B680832B969A6
:1020200043F822107B681B68BB61FB695B000322DD
:1020300002FA03F3DB43BA691340BB613B685B6898
:1020400003F00302FB695B0002FA03F3BA6913436E
:10205000BB617B68BA691A603B685B6803F4403314
:10206000002B00F0A2800023FB60574B5B6C564AAC
:1020700043F480435364544B5B6C03F48043FB6034
:10208000FB68524AFB699B08023352F82330BB615C
:10209000FB6903F003039B000F2202FA03F3DB4307
:1020A000BA691340BB617B68494A934219D07B6887
:1020B000484A934213D07B68474A93420DD07B68CD
:1020C000464A934207D07B68454A934201D1042394
:1020D00008E0072306E0032304E0022302E00123D3
:1020E00000E00023FA6902F0030292009340BA690B
:1020F0001343BB613549FB699B080233BA6941F858
:102100002320384B9B68BB613B69DB43BA691340B2
:10211000BB613B685B6803F48013002B03D0BA6992
:102120003B691343BB612F4ABB6993602D4BDB684E
:10213000BB613B69DB43BA691340BB613B685B68C9
:1021400003F40013002B03D0BA693B691343BB614E
:10215000244ABB69D360234B5B68BB613B69DB43AB
:10216000BA691340BB613B685B6803F40033002B22
:1021700003D0BA693B691343BB611A4ABB69536018
:10218000184B1B68BB613B69DB43BA691340BB61F9
:102190003B685B6803F48033002B03D0BA693B696A
:1021A0001343BB610F4ABB691360FB690133FB61D9
:1021B000FB690F2B7FF6A2AE00BF00BF2437BD46E0
:1021C0005DF8047B704700BF0038024000380140D2
:1021D000000002400004024000080240000C0240DF
:1021E00000100240003C014080B483B000AF786032
:1021F0000B467B8013467B707B78002B03D07A885C
:102200007B689A6103E07B881A047B689A6100BF4F
:102210000C37BD465DF8047B7047000080B586B082
:1022200000AF78607B68002B01D1012367E27B68F7
:102230001B6803F00103002B75D0884B9B6803F0EB
:102240000C03042B0CD0854B9B6803F00C03082B6C
:1022500012D1824B5B6803F48003B3F5800F0BD17E
:102260007E4B1B6803F40033002B5BD07B685B68FC
:10227000002B57D1012342E27B685B68B3F5803FB6
:1022800006D1764B1B68754A43F4803313601DE01A
:102290007B685B68B3F5A02F0CD1704B1B686F4A4D
:1022A00043F4802313606D4B1B686C4A43F4803306
:1022B00013600BE0694B1B68684A23F4803313609A
:1022C000664B1B68654A23F4802313607B685B6858
:1022D000002B13D0FFF7EEFC386108E0FFF7EAFCB3
:1022E00002463B69D31A642B01D9032307E25B4BF7
:1022F0001B6803F40033002BF0D014E0FFF7DAFC86
:10230000386108E0FFF7D6FC02463B69D31A642B1C
:1023100001D90323F3E1514B1B6803F40033002B75
:10232000F0D100E000BF7B681B6803F00203002BC4
:1023300063D04A4B9B6803F00C03002B0BD0474B38
:102340009B6803F00C03082B1CD1444B5B6803F41F
:102350008003002B16D1414B1B6803F00203002BB6
:1023600005D07B68DB68012B01D00123C7E13B4B23
:102370001B6823F0F8027B681B69DB0037491343B5
:102380000B603AE07B68DB68002B20D0344B0122E5
:102390001A60FFF78FFC386108E0FFF78BFC0246FC
:1023A0003B69D31A022B01D90323A8E12B4B1B68ED
:1023B00003F00203002BF0D0284B1B6823F0F80237
:1023C0007B681B69DB00254913430B6015E0244B38
:1023D00000221A60FFF76EFC386108E0FFF76AFC24
:1023E00002463B69D31A022B01D9032387E11B4B19
:1023F0001B6803F00203002BF0D17B681B6803F01D
:102400000803002B36D07B685B69002B16D0154B78
:1024100001221A60FFF74EFC386108E0FFF74AFC22
:1024200002463B69D31A022B01D9032367E10B4B08
:102430005B6F03F00203002BF0D01BE0094B00227E
:102440001A60FFF737FC38610EE0FFF733FC0246F5
:102450003B69D31A022B07D9032350E1003802400D
:1024600000004742800E4742884B5B6F03F0020337
:10247000002BEAD17B681B6803F00403002B00F0FB
:1024800097800023FB75814B1B6C03F08053002B5E
:102490000FD10023BB607D4B1B6C7C4A43F0805303
:1024A00013647A4B1B6C03F08053BB60BB68012341
:1024B000FB75774B1B6803F48073002B18D1744BAA
:1024C0001B68734A43F480731360FFF7F3FB3861B2
:1024D00008E0FFF7EFFB02463B69D31A022B01D954
:1024E00003230CE16A4B1B6803F48073002BF0D0CC
:1024F0007B689B68012B06D1644B1B6F634A43F0DA
:10250000010313671CE07B689B68052B0CD15F4BB4
:102510001B6F5E4A43F0040313675C4B1B6F5B4AFF
:1025200043F0010313670BE0584B1B6F574A23F02E
:1025300001031367554B1B6F544A23F004031367C1
:102540007B689B68002B15D0FFF7B4FB38610AE06D
:10255000FFF7B0FB02463B69D31A41F2883293423F
:1025600001D90323CBE0494B1B6F03F00203002B7F
:10257000EED014E0FFF79EFB38610AE0FFF79AFB0C
:1025800002463B69D31A41F28832934201D90323B0
:10259000B5E03E4B1B6F03F00203002BEED1FB7D39
:1025A000012B05D1394B1B6C384A23F0805313643F
:1025B0007B689B69002B00F0A180344B9B6803F083
:1025C0000C03082B5CD07B689B69022B41D1314BFB
:1025D00000221A60FFF76EFB386108E0FFF76AFB24
:1025E00002463B69D31A022B01D9032387E0274B0C
:1025F0001B6803F00073002BF0D17B68DA697B68FD
:102600001B6A1A437B685B6A9B011A437B689B6A5F
:102610005B08013B1B041A437B68DB6A1B061B49F2
:1026200013434B601B4B01221A60FFF743FB3861D9
:1026300008E0FFF73FFB02463B69D31A022B01D9A2
:1026400003235CE0114B1B6803F00073002BF0D0F8
:1026500054E0104B00221A60FFF72CFB386108E0B1
:10266000FFF728FB02463B69D31A022B01D903234B
:1026700045E0064B1B6803F00073002BF0D13DE0F2
:102680007B689B69012B07D1012338E000380240A9
:1026900000700040600047421B4B5B68FB607B683A
:1026A0009B69012B28D0FB6803F480027B68DB69FF
:1026B0009A4221D1FB6803F03F027B681B6A9A4271
:1026C0001AD1FA6847F6C07313407A68526A9201C9
:1026D000934211D1FB6803F440327B689B6A5B082C
:1026E000013B1B049A4207D1FB6803F070627B68D0
:1026F000DB6A1B069A4201D0012300E00023184642
:102700001837BD4680BD00BF0038024080B584B098
:1027100000AF786039607B68002B01D10123CCE0E9
:10272000684B1B6803F007033A689A420CD9654B63
:102730003A68D2B21A70634B1B6803F007033A6819
:102740009A4201D00123B8E07B681B6803F00203C2
:10275000002B20D07B681B6803F00403002B05D0FE
:10276000594B9B68584A43F4E05393607B681B685D
:1027700003F00803002B05D0534B9B68524A43F4E7
:1027800060439360504B9B6823F0F0027B689B682A
:102790004D4913438B607B681B6803F00103002BDA
:1027A00044D07B685B68012B07D1474B1B6803F45F
:1027B0000033002B19D101237FE07B685B68022B7B
:1027C00003D07B685B68032B07D13F4B1B6803F08A
:1027D0000073002B09D101236FE03B4B1B6803F012
:1027E0000203002B01D1012367E0374B9B6823F0E4
:1027F00003027B685B68344913438B60FFF75AFA26
:10280000F8600AE0FFF756FA0246FB68D31A41F275
:102810008832934201D903234FE02B4B9B6803F08E
:102820000C027B685B689B009A42EBD1254B1B68CE
:1028300003F007033A689A420CD2224B3A68D2B2AC
:102840001A70204B1B6803F007033A689A4201D0C4
:10285000012332E07B681B6803F00403002B08D0DF
:10286000194B9B6823F4E0527B68DB6816491343DD
:102870008B607B681B6803F00803002B09D0124BA8
:102880009B6823F460427B681B69DB000E4913439D
:102890008B6000F02DF802460B4B9B681B0903F080
:1028A0000F030A49CB5C22FA03F3094A1360094B70
:1028B0001B681846FFF7BAF9002318461037BD46C3
:1028C00080BD00BF003C0240003802403053000889
:1028D000040000200800002080B400AF034B012258
:1028E0001A6000BFBD465DF8047B70474C0047424C
:1028F0002DE9B04F90B000AF00237B630023FB6352
:1029000000233B630023BB63594B9B6803F00C031C
:10291000082B0DD0082B00F2A180002B02D0042B35
:1029200003D09BE0534BBB639BE0534BBB6398E0EE
:102930004F4B5B6803F03F037B634D4B5B6803F4D5
:102940008003002B28D04A4B5B689B0900223B6226
:102950007A623B6AC3F308000021474B03FB01F294
:10296000002300FB03F31344434AA0FB0212FA6264
:102970000A46BA62FA6A1344FB627B6B0022BB61AF
:10298000FA61D7E90623D7E90A01FDF787FF024676
:102990000B461346FB6353E0354B5B689B090022F3
:1029A0003B617A613B69C3F3080A4FF0000B524662
:1029B0005B464FF000004FF00001590141EAD2613F
:1029C000500102460B46B2EB0A0863EB0B094FF0CD
:1029D00000024FF000034FEA891343EA98634FEA7D
:1029E0008812B2EB080463EB09054FF000024FF0C8
:1029F0000003EB0043EA5473E20014461D4614EB57
:102A00000A033B6045EB0B037B604FF000024FF085
:102A10000003D7E9004529468B02214643EA91533A
:102A200021468A02104619467B6B0022BB60FA6081
:102A3000D7E90223FDF732FF02460B461346FB633C
:102A40000B4B5B681B0C03F0030301335B003B6320
:102A5000FA6B3B6BB2FBF3F3BB6302E0054BBB636A
:102A600000BFBB6B18464037BD46BDE8B08F00BF06
:102A7000003802400024F40040787D0180B400AFAB
:102A8000034B1B681846BD465DF8047B704700BFCA
:102A90000400002080B500AFFFF7F0FF0246054BB1
:102AA0009B689B0A03F007030349CB5C22FA03F3FC
:102AB000184680BD003802404053000880B500AF82
:102AC000FFF7DCFF0246054B9B685B0B03F0070337
:102AD0000349CB5C22FA03F3184680BD003802405C
:102AE0004053000880B500AF064BDB6803F080035D
:102AF000802B04D100F00AF8034B80221A7000BF2B
:102B000080BD00BF003802400E38024080B400AFE4
:102B100000BFBD465DF8047B704780B582B000AF52
:102B200078607B68002B01D101237BE07B685B6AC6
:102B3000002B08D17B685B68B3F5827F09D07B6886
:102B40000022DA6105E07B6800221A617B680022BE
:102B50005A617B6800229A627B6893F85130DBB23D
:102B6000002B06D17B68002283F850207868FEF79E
:102B7000D5FE7B68022283F851207B681B681A68A7
:102B80007B681B6822F040021A607B685B6803F474
:102B900082727B689B6803F404431A437B68DB689A
:102BA00003F400631A437B681B6903F002031A43B2
:102BB0007B685B6903F001031A437B689B6903F43C
:102BC00000731A437B68DB6903F038031A437B68A0
:102BD0001B6A03F0800342EA03017B689B6A03F4EB
:102BE00000527B681B680A431A607B689B691B0C58
:102BF00003F004017B685B6A03F010027B681B68CA
:102C00000A435A607B681B68DA697B681B6822F498
:102C10000062DA617B6800225A657B68012283F8D2
:102C20005120002318460837BD4680BD80B588B0C6
:102C300000AFF860B9603B601346FB800023FB7770
:102C4000FB6893F85030012B01D1022326E1FB6889
:102C5000012283F85020FFF72DF8B861FB88FB8232
:102C6000FB6893F85130DBB2012B02D00223FB77D3
:102C70000BE1BB68002B02D0FB88002B02D10123A3
:102C8000FB7702E1FB68032283F85120FB680022F6
:102C90005A65FB68BA681A63FB68FA889A86FB680B
:102CA000FA88DA86FB6800229A63FB6800229A871A
:102CB000FB680022DA87FB6800225A64FB68002266
:102CC0001A64FB689B68B3F5004F0FD1FB681B6863
:102CD0001A68FB681B6822F040021A60FB681B68D8
:102CE0001A68FB681B6842F480421A60FB681B6824
:102CF0001B6803F04003402B07D0FB681B681A6871
:102D0000FB681B6842F040021A60FB68DB68B3F5A1
:102D1000006F4BD1FB685B68002B02D0FB8A012B54
:102D20003ED1FB681B6B1A88FB681B68DA60FB6886
:102D30001B6B9A1CFB681A63FB68DB8E9BB2013B22
:102D40009AB2FB68DA862BE0FB681B689B6803F08D
:102D50000203022B12D1FB681B6B1A88FB681B68ED
:102D6000DA60FB681B6B9A1CFB681A63FB68DB8EDE
:102D70009BB2013B9AB2FB68DA8611E0FEF79AFF3C
:102D80000246BB69D31A3A689A4203D83B68B3F14A
:102D9000FF3F02D13B68002B02D10323FB7774E095
:102DA000FB68DB8E9BB2002BCED14CE0FB685B68EE
:102DB000002B02D0FB8A012B40D1FB681A6BFB6809
:102DC0001B680C3312781A70FB681B6B5A1CFB686B
:102DD0001A63FB68DB8E9BB2013B9AB2FB68DA8612
:102DE0002CE0FB681B689B6803F00203022B13D1E5
:102DF000FB681A6BFB681B680C3312781A70FB684F
:102E00001B6B5A1CFB681A63FB68DB8E9BB2013B91
:102E10009AB2FB68DA8611E0FEF74CFF0246BB6906
:102E2000D31A3A689A4203D83B68B3F1FF3F02D104
:102E30003B68002B02D10323FB7726E0FB68DB8E87
:102E40009BB2002BCDD1BA693968F86800F062FAFC
:102E50000346002B02D0FB6820225A65FB689B6862
:102E6000002B0AD100233B61FB681B68DB683B61D8
:102E7000FB681B689B683B613B69FB685B6D002BD3
:102E800002D00123FB7700E000BFFB68012283F83A
:102E90005120FB68002283F85020FB7F1846203722
:102EA000BD4680BD80B58CB000AFF860B9607A6077
:102EB0007B800123FB62002387F82B30FB6893F8AB
:102EC0005030012B01D102238AE1FB68012283F8F3
:102ED0005020FEF7EFFE7862FB6893F8513087F8D8
:102EE0002330FB685B68FB617B887B8397F823302A
:102EF000012B0FD0FB69B3F5827F07D1FB689B687C
:102F0000002B03D197F82330042B03D0022387F83A
:102F10002B305BE1BB68002B05D07B68002B02D017
:102F20007B88002B03D1012387F82B304EE1FB680F
:102F300093F85130DBB2042B03D0FB68052283F8F1
:102F40005120FB6800225A65FB687A689A63FB6827
:102F50007A88DA87FB687A889A87FB68BA681A6386
:102F6000FB687A88DA86FB687A889A86FB68002292
:102F70001A64FB6800225A64FB681B681B6803F034
:102F80004003402B07D0FB681B681A68FB681B686E
:102F900042F040021A60FB68DB68B3F5006F78D13D
:102FA000FB685B68002B02D07B8B012B66D1FB6832
:102FB0001B6B1A88FB681B68DA60FB681B6B9A1C2A
:102FC000FB681A63FB68DB8E9BB2013B9AB2FB681D
:102FD000DA8653E0FB681B689B6803F00203022B50
:102FE0001BD1FB68DB8E9BB2002B16D0FB6A012B3A
:102FF00013D1FB681B6B1A88FB681B68DA60FB68DF
:103000001B6B9A1CFB681A63FB68DB8E9BB2013B4F
:103010009AB2FB68DA860023FB62FB681B689B6838
:1030200003F00103012B19D1FB68DB8F9BB2002B4E
:1030300014D0FB681B68DA68FB689B6B92B21A803D
:10304000FB689B6B9A1CFB689A63FB68DB8F9BB2E7
:10305000013B9AB2FB68DA870123FB62FEF72AFE86
:1030600002467B6AD31ABA6B9A4207D8BB6BB3F19C
:10307000FF3F03D0032387F82B30A7E0FB68DB8EEC
:103080009BB2002BA6D1FB68DB8F9BB2002BA1D19A
:103090007CE0FB685B68002B02D07B8B012B6BD143
:1030A000FB681A6BFB681B680C3312781A70FB689C
:1030B0001B6B5A1CFB681A63FB68DB8E9BB2013BDF
:1030C0009AB2FB68DA8657E0FB681B689B6803F0DE
:1030D0000203022B1CD1FB68DB8E9BB2002B17D0A6
:1030E000FB6A012B14D1FB681A6BFB681B680C335D
:1030F00012781A70FB681B6B5A1CFB681A63FB681A
:10310000DB8E9BB2013B9AB2FB68DA860023FB623E
:10311000FB681B689B6803F00103012B19D1FB6856
:10312000DB8F9BB2002B14D0FB681B68DA68FB684E
:103130009B6BD2B21A70FB689B6B5A1CFB689A633C
:10314000FB68DB8F9BB2013B9AB2FB68DA870123F5
:10315000FB62FEF7AFFD02467B6AD31ABA6B9A4256
:1031600003D8BB6BB3F1FF3F02D1BB6B002B03D184
:10317000032387F82B3029E0FB68DB8E9BB2002B02
:10318000A2D1FB68DB8F9BB2002B9DD17A6AB96B11
:10319000F86800F0BFF80346002B06D0012387F83B
:1031A0002B30FB6820225A6510E0FB689B68002BDF
:1031B0000BD100237B61FB681B68DB687B61FB68CC
:1031C0001B689B687B617B6900E000BFFB68012294
:1031D00083F85120FB68002283F8502097F82B30A9
:1031E00018463037BD4680BD80B483B000AF7860EC
:1031F0007B6893F85130DBB218460C37BD465DF85A
:10320000047B704780B588B000AFF860B9603B6060
:103210001346FB71FEF74EFD0246BB6A9B1A3A68E5
:103220001344FB61FEF746FDB861394B1B685B0137
:103230001B0DFA6902FB03F37B6154E03B68B3F1B9
:10324000FF3F50D0FEF736FD0246BB69D31AFA693C
:103250009A4202D9FB69002B3DD1FB681B685A6872
:10326000FB681B6822F0E0025A60FB685B68B3F5FC
:10327000827F11D1FB689B68B3F5004F04D0FB68D7
:103280009B68B3F5806F07D1FB681B681A68FB6801
:103290001B6822F040021A60FB689B6AB3F5005F6E
:1032A0000FD1FB681B681A68FB681B6822F4005288
:1032B0001A60FB681B681A68FB681B6842F40052BE
:1032C0001A60FB68012283F85120FB68002283F812
:1032D0005020032317E07B69002B01D10023FB6101
:1032E0007B69013B7B61FB681B689A68BB68134084
:1032F000BA689A420CBF01230023DBB21A46FB795D
:103300009A429BD1002318462037BD4680BD00BF9E
:103310000400002080B588B002AFF860B9607A6020
:103320001B4B1B681B4AA2FB03235B0D4FF47A72F5
:1033300002FB03F37B61FB685B68B3F5827F12D10C
:103340007B680093BB6800228021F868FFF75AFF72
:103350000346002B16D0FB685B6D43F02002FB6830
:103360005A6503230FE07B69002B0AD07B69013B80
:103370007B61FB681B689B6803F08003802BF2D0A5
:1033800000E000BF002318461837BD4680BD00BFCF
:1033900004000020819F5E1680B582B000AF786087
:1033A0007B68002B01D101233FE07B6893F83D301F
:1033B000DBB2002B06D17B68002283F83C207868C2
:1033C000FEF7F4FA7B68242283F83D207B681B68B3
:1033D000DA687B681B6822F40052DA60786800F0D3
:1033E00029F97B681B681A697B681B6822F4904284
:1033F0001A617B681B685A697B681B6822F02A0285
:103400005A617B681B68DA687B681B6842F400526B
:10341000DA607B6800221A647B68202283F83D20F2
:103420007B68202283F83E20002318460837BD46DB
:1034300080BD80B58AB002AFF860B9603B601346CA
:10344000FB8000237B61FB6893F83D30DBB2202BCF
:103450007CD1BB68002B02D0FB88002B01D101235B
:1034600075E0FB6893F83C30012B01D102236EE03C
:10347000FB68012283F83C20FB6800221A64FB6889
:10348000212283F83D20FEF715FC7861FB68FA885D
:103490009A84FB68FA88DA84FB689B68B3F5805FDE
:1034A00008D1FB681B69002B04D10023FB61BB68BA
:1034B000BB6103E0BB68FB610023BB61FB680022CA
:1034C00083F83C202AE03B6800937B69002280213E
:1034D000F86800F040F80346002B01D0032336E0E3
:1034E000FB69002B0BD1BB691B881A46FB681B6864
:1034F000C2F308025A60BB690233BB6107E0FB6993
:103500001A78FB681B685A60FB690133FB61FB6832
:10351000DB8C9BB2013B9AB2FB68DA84FB68DB8CE4
:103520009BB2002BCFD13B6800937B6900224021E6
:10353000F86800F010F80346002B01D0032306E0E2
:10354000FB68202283F83D20002300E00223184678
:103550002037BD4680BD80B590B000AFF860B9603F
:103560003B601346FB7150E0BB6CB3F1FF3F4CD0A6
:10357000BB6C002B07D0FEF79DFB02463B68D31ABD
:10358000BA6C9A4241D2FB681B680C33BB62BB6ABF
:1035900053E8003F7B627B6A23F4D073FB63FB68D4
:1035A0001B680C33FA6B7A633B63396B7A6B41E8C7
:1035B0000023FB62FB6A002BE5D1FB681B68143318
:1035C0007B617B6953E8003F3B613B6923F001036A
:1035D000BB63FB681B681433BA6B3A62FB61F96921
:1035E0003A6A41E80023BB61BB69002BE5D1FB6867
:1035F000202283F83D20FB68202283F83E20FB68D0
:10360000002283F83C2003230FE0FB681B681A6844
:10361000BB681340BA689A420CBF01230023DBB297
:103620001A46FB799A429FD0002318464037BD4680
:1036300080BD00002DE9B04FC0B000AFC7F8F40066
:10364000D7F8F4301B681B6923F44050D7F8F430E6
:10365000D968D7F8F4301A6840EA01031361D7F843
:10366000F4309A68D7F8F4301B691A43D7F8F4306D
:103670005B691A43D7F8F430DB691343C7F8F830B5
:10368000D7F8F4301B68DB6823F4164121F00C01F5
:10369000D7F8F4301A68D7F8F8300B43D360D7F86E
:1036A000F4301B685B6923F44070D7F8F4309969F3
:1036B000D7F8F4301A6840EA01035361D7F8F430C0
:1036C0001A688F4B9A4205D0D7F8F4301A688D4BA0
:1036D0009A4204D1FFF7F2F9C7F8FC0003E0FFF7C4
:1036E000D9F9C7F8FC00D7F8F430DB69B3F5004F1F
:1036F00040F00C81D7F8FC300022C7F8E830C7F85A
:10370000EC20D7E93A4522462B469118B9655B4132
:10371000FB65D7E91623214612EB0108294643EB46
:1037200001094FF000024FF000034FEAC90343EADA
:1037300058734FEAC80290469946234618EB030394
:10374000C7F8E0302B4649EB0303C7F8E430D7F85D
:10375000F4305B680022C7F8D830C7F8DC20D7E91E
:1037600036120B46DB183B65134642EB03037B65C1
:10377000D7E91423D7E93801FDF790F802460B4644
:10378000614BA3FB02235B091C01D7F8FC3000222C
:10379000C7F8D030C7F8D420D7E9348942464B4621
:1037A0009118B9645B41FB64D7E91223414612EBDF
:1037B000010A494643EB010B4FF000024FF00003B2
:1037C0004FEACB0343EA5A734FEACA0292469B463A
:1037D00043461AEB0303C7F8C8304B464BEB0303D1
:1037E000C7F8CC30D7F8F4305B680022C7F8C03097
:1037F000C7F8C420D7E930120B46DB183B641346E8
:1038000042EB03037B64D7E91023D7E93201FDF7CC
:1038100045F802460B4611463B4BA3FB01235B09CF
:10382000642202FB03F3CB1ADB0003F13202364BB6
:10383000A3FB02235B095B0003F4F8731C44D7F875
:10384000FC300022C7F8B830C7F8BC20D7E92E8971
:1038500042464B469118B9635B41FB63D7E90E239F
:1038600041465118396349464B417B634FF0000292
:103870004FF00003D7E90CAB5946CB00514643EA61
:1038800051735146CA0010461946034642469B18DA
:10389000C7F8B0304B460A4642EB0303C7F8B430D2
:1038A000D7F8F4305B680022C7F8A830C7F8AC201E
:1038B000D7E92A120B46DB18BB62134642EB03031F
:1038C000FB62D7E90A23D7E92C01FCF7E7FF0246A0
:1038D0000B460D4BA3FB02135B09642101FB03F3B1
:1038E000D31ADB003233084AA2FB03235B0903F03F
:1038F0000702D7F8F4301B6822449A6005E100BF44
:1039000000100140001401401F85EB51D7F8FC3036
:103910000022C7F8A030C7F8A420D7E9288942467A
:103920004B46911839625B417B62D7E908234146D7
:103930005418494643EB01054FF000024FF00003D5
:10394000EB0043EA5473E20014461D464346E31875
:10395000C7F898304B4645EB0303C7F89C30D7F8BF
:10396000F4305B680022C7F89030C7F894204FF01D
:1039700000024FF00003D7E9244529468B00214679
:1039800043EA917321468A00D7E92601FCF786FFB6
:1039900002460B46604BA3FB02235B091C01D7F8D0
:1039A000FC300022C7F88830C7F88C20D7E922897C
:1039B00042464B469118B9615B41FB61D7E906234A
:1039C00041465118396149464B417B614FF0000235
:1039D0004FF00003D7E904AB5946CB00514643EA08
:1039E00051735146CA0010461946034642469B1879
:1039F000C7F880304B460A4642EB0303C7F88430D1
:103A0000D7F8F4305B680022BB67FA674FF000021A
:103A10004FF00003D7E91E8949468B00414643EA2F
:103A2000917341468A00D7E92001FCF737FF02462F
:103A30000B46394BA3FB02135B09642101FB03F323
:103A4000D31A1B013233344AA2FB03235B0903F070
:103A5000F0031C44D7F8FC3000223B677A67D7E9B3
:103A60001C8942464B469118B9605B41FB60D7E91F
:103A7000022341465118396049464B417B604FF063
:103A800000024FF00003D7E900AB5946CB00514686
:103A900043EA51735146CA0010461946034642464E
:103AA0009B18BB664B460A4642EB0303FB66D7F8FE
:103AB000F4305B6800223B667A664FF000024FF0FC
:103AC0000003D7E9188949468B00414643EA9173C0
:103AD00041468A00D7E91A01FCF7E0FE02460B4690
:103AE0000D4BA3FB02135B09642101FB03F3D31A03
:103AF0001B013233084AA2FB03235B0903F00F02C8
:103B0000D7F8F4301B6822449A6000BF07F580772D
:103B1000BD46BDE8B08F00BF1F85EB5180B500AF3B
:103B20000449054800F012FF03461A46034B1A7079
:103B300000BF80BDA0150020100000209C150020B3
:103B400080B582B000AF0346FB71FB791846FDF7E4
:103B5000E1F90346DBB218460837BD4680BD80B5A3
:103B600082B000AF0346FB71FB791846FDF7BCFA43
:103B70000346DBB218460837BD4680BD80B584B029
:103B800000AFB9607A603B600346FB73F87B3B682B
:103B90007A68B968FDF7BEFA0346DBB218461037FB
:103BA000BD4680BD80B584B000AFB9607A603B602F
:103BB0000346FB73F87B3B687A68B968FDF714FB32
:103BC0000346DBB218461037BD4680BD80B582B0D3
:103BD00000AF03463A60FB710B46BB71FB79B979C4
:103BE0003A681846FDF784FB0346DBB218460837EF
:103BF000BD4680BD80B584B000AF0346FB71FB7944
:103C0000084A9B0013445B685B68FA7905490A44DB
:103C1000127A104698470346FB73FB7B1846103711
:103C2000BD4680BDCC17002080B584B000AF0346F0
:103C3000FB710023FB73FB790D4AD35C002B11D180
:103C4000FB790B4A0121D154FB79094A9B001344AB
:103C50005B681B68FA7906490A44127A104698474D
:103C60000346FB73FB7B18461037BD4680BD00BF83
:103C7000CC17002090B587B000AFB9607A603B6088
:103C80000346FB73FB7B0A4A9B0013445B689C68FA
:103C9000FB7B074A1344187A3B687A68B968A047E7
:103CA0000346FB75FB7D18461C37BD4690BD00BF23
:103CB000CC17002090B587B000AFB9607A603B6048
:103CC0000346FB73FB7B0A4A9B0013445B68DC687A
:103CD000FB7B074A1344187A3B687A68B968A047A7
:103CE0000346FB75FB7D18461C37BD4690BD00BFE3
:103CF000CC17002080B584B000AF03463A60FB715A
:103D00000B46BB71FB79094A9B0013445B681B6936
:103D1000FA7906490A44107AB9793A68984703460D
:103D2000FB73FB7B18461037BD4680BDCC170020C7
:103D300080B485B000AF78607B6801331B78FB816D
:103D4000FB891B021AB27B681B781BB213431BB2A0
:103D5000FB81FB8918461437BD465DF8047B70472C
:103D600080B485B000AF78607B6803331B78FB605C
:103D7000FB681B027A68023212781343FB60FB680F
:103D80001B027A68013212781343FB60FB681B0246
:103D90007A6812781343FB60FB6818461437BD46F7
:103DA0005DF8047B7047000080B485B000AF786098
:103DB0000023FB6010E00D4AFB681B0113441B68E5
:103DC0007A689A4205D1094AFB681B011344002214
:103DD0001A60FB680133FB60FB68012BEBD900BF65
:103DE00000BF1437BD465DF8047B7047AC1500205A
:103DF00080B586B000AF78600023FB737B68DB780A
:103E0000002B34D07B685B6B7B617B6858787B6868
:103E100003F1380101237A69FFF74CFF0346002BB9
:103E200002D00123FB7322E07B680022DA707B68FA
:103E30009B6A7A69D21A7B681B6A9A4217D27B689E
:103E40009B783B6110E07B681B6A7A6913447B6155
:103E50007B6858787B6803F1380101237A69FFF7A2
:103E600029FF3B69013B3B613B69012BEBD8FB7BA5
:103E700018461837BD4680BD80B584B000AF786065
:103E800039600023FB737B685B6B3A689A421BD0F6
:103E90007868FFF7ADFF0346FB73FB7B002B13D164
:103EA0007B6858787B6803F1380101233A68FFF793
:103EB000E1FE0346002B04D04FF0FF333B600123AB
:103EC000FB737B683A685A63FB7B18461037BD4624
:103ED00080BD80B586B000AF786039607B681B68B4
:103EE0003B613B68012B04D93B69DB693A689A4224
:103EF00002D301237B61BBE04FF0FF337B613B6961
:103F00001B78032B00F08380032B00F3A780012B89
:103F100002D0022B56D0A1E03B68FB60FB685B0837
:103F2000FA681344FB603B699A6A3B699B891946AE
:103F3000FB68B3FBF1F3134419463869FFF79CFFA4
:103F40000346002B40F08D80FB685A1CFA603A69EA
:103F50009289B3FBF2F101FB02F29B1A3A69134416
:103F600093F83830BB603B699A6A3B699B89194674
:103F7000FB68B3FBF1F3134419463869FFF77CFF84
:103F80000346002B6FD13B699B891A46FB68B3FB44
:103F9000F2F101FB02F29B1A3A69134493F83830AC
:103FA0001B021A46BB681343BB603B6803F0010366
:103FB000002B02D0BB681B0902E0BB68C3F30B03F4
:103FC0007B6155E03B699A6A3B699B895B089BB2C0
:103FD00019463B68B3FBF1F3134419463869FFF700
:103FE0004BFF0346002B40D13B6903F138013B688E
:103FF0005B003A699289B3FBF2F000FB02F29B1A74
:104000000B441846FFF794FE03467B6130E03B69A2
:104010009A6A3B699B899B089BB219463B68B3FB34
:10402000F1F3134419463869FFF726FF0346002BC6
:104030001DD13B6903F138013B689B003A699289C5
:10404000B3FBF2F000FB02F29B1A0B441846FFF799
:1040500087FE034623F070437B6109E001237B6107
:1040600006E000BF04E000BF02E000BF00E000BFC8
:104070007B6918461837BD4680BD80B487B000AF55
:1040800078604FF0FF333B617B681B68002B31D0B9
:104090007B681B687B6102E07B6901337B617B6924
:1040A0001B781F2B03D97B691B783A2BF4D17B69D2
:1040B0001B783A2B1CD17B681B68FB60FB685A1C81
:1040C000FA601B78303BBB60BB68092B0ED8FA68DE
:1040D0007B699A420AD1BB68002B07D1BB683B6160
:1040E0007B6901337B617B687A691A603B6902E016
:1040F00000233B613B6918461C37BD465DF8047BD5
:104100007047000080B582B000AF786039607B688E
:104110000022DA707B684FF0FF325A6339687868A2
:10412000FFF7AAFE0346002B01D0042338E07B688A
:10413000383303F5FF731846FFF7FAFD03461A46B6
:104140004AF655239A4201D0032329E07B6893F86D
:104150003830E92B09D07B6893F83830EB2B1ED12F
:104160007B6893F83A30902B19D17B68383336331B
:104170001846FFF7F5FD034623F07F430A4A9342B2
:1041800001D100230CE07B68383352331846FFF727
:10419000E7FD0346054A934201D1002300E00223D4
:1041A00018460837BD4680BD464154004641543349
:1041B00080B596B000AFF860B9601346FB71BB687C
:1041C00000221A60F868FFF758FFF863FB6B002BBA
:1041D00001DA0B2365E29F4AFB6B52F82330BB6385
:1041E000BB6B002B01D10C235BE2BB68BA6B1A607E
:1041F000FB7923F00103FB71BB6B1B78002B1AD0FA
:10420000BB6B5B781846FFF7F5FC034687F8373041
:1042100097F8373003F00103002B0CD1FB79002B0A
:1042200007D097F8373003F00403002B01D00A239E
:1042300037E2002335E2BB6B00221A70FB6BDAB267
:10424000BB6B5A70BB6B5B781846FFF7EDFC0346FF
:1042500087F8373097F8373003F00103002B01D08F
:1042600003231EE2FB79002B07D097F8373003F0C9
:104270000403002B01D00A2313E2BB6B5878BB6BFD
:104280000C331A460221FFF735FD0346002B01D0FF
:10429000012306E2BB6B9B89B3F5805F0DD8BB6B36
:1042A0009B89B3F5007F08D3BB6B9B891A46BB6B18
:1042B0009B89013B1340002B01D00123F1E1002336
:1042C0003B65396DB86BFFF71DFF034687F8573024
:1042D00097F85730022B49D100233B641EE0BB6B9B
:1042E00003F138023B6C1B0103F5DF7313443B639E
:1042F0003B6B04331B78002B06D03B6B083318460E
:10430000FFF72EFD024600E000223B6C9B00583375
:104310003B4443F8442C3B6C01333B643B6C032B24
:10432000DDD900233B643B6C002B02D03B6C013B8E
:104330003B643B6C9B0058333B4453F8443C3B6527
:104340003B6D002B05D0396DB86BFFF7DBFE0346E4
:1043500000E0032387F8573097F85730012B05D931
:104360003B6C01333B643B6C032BE2D997F857302D
:10437000042B01D1012394E197F85730012B01D987
:104380000D238EE1BB6B38330B331846FFF7D0FC9F
:1043900003461A46BB6B9B899A4201D00D2380E1EC
:1043A000BB6B383316331846FFF7C2FC0346FB6479
:1043B000FB6C002B06D1BB6B383324331846FFF758
:1043C000CFFCF864BB6BFA6C1A62BB6B93F84820A5
:1043D000BB6B9A70BB6B9B78012B05D0BB6B9B783A
:1043E000022B01D00D235CE1BB6B9B781A46FB6C62
:1043F00002FB03F3FB64BB6B93F845309AB2BB6BD3
:104400005A81BB6B5B89002B08D0BB6B5B891A465A
:10441000BB6B5B89013B1340002B01D00D2340E1B6
:10442000BB6B383311331846FFF782FC03461A463C
:10443000BB6B1A81BB6B1B89BA6B9289520992B212
:10444000B3FBF2F101FB02F29B1A9BB2002B03D0EB
:104450000D2326E1A4150020BB6B38331333184617
:10446000FFF766FC0346BB64BB6C002B06D1BB6B3D
:10447000383320331846FFF773FCB864BB6B38330E
:104480000E331846FFF754FC0346FB85FB8D002BCB
:1044900001D10D2305E1FA8DFB6C1344BA6B118930
:1044A000BA6B9289520992B2B1FBF2F292B2134402
:1044B000BB62BA6CBB6A9A4201D20D23F1E0BA6CBE
:1044C000BB6AD31ABA6B5289B3FBF2F37B627B6A85
:1044D000002B01D10D23E4E0032387F857307B6ADA
:1044E0004FF6F572934202D8022387F857307B6A61
:1044F00040F6F572934202D8012387F857307B6A61
:104500009A1CBB6BDA61BB6B3A6D5A62FA8D3B6DDC
:104510001A44BB6B9A623A6DBB6A1A44BB6B1A634E
:1045200097F85730032B1ED1BB6B38332A3318460C
:10453000FFF7FEFB0346002B01D00D23B1E0BB6B60
:104540001B89002B01D00D23ABE0BB6B38332C3320
:104550001846FFF705FC0246BB6BDA62BB6BDB69F2
:104560009B007B641FE0BB6B1B89002B01D10D23DB
:1045700097E0BB6B9A6AFB6C1A44BB6BDA6297F8E4
:104580005730022B03D1BB6BDB695B000AE0BB6BCE
:10459000DA6913465B0013445A08BB6BDB6903F00E
:1045A000010313447B64BB6B1A6ABB6B9B8919467E
:1045B0007B6C0B44013BB96B8989B3FBF1F39A42E5
:1045C00001D20D236DE0BB6B4FF0FF329A61BB6BE4
:1045D0009A69BB6B5A61BB6B80221A7197F857308E
:1045E000032B49D1BB6B383330331846FFF7A0FBA0
:1045F0000346012B40D13B6D01331946B86BFFF7E1
:104600003BFC0346002B37D1BB6B00221A71BB6BFE
:10461000383303F5FF731846FFF78AFB03461A4643
:104620004AF655239A4227D1BB6B38331846FFF719
:1046300097FB03461D4A93421ED1BB6B383303F5EB
:10464000F2731846FFF78CFB0346194A934213D1C5
:10465000BB6B383303F5F4731846FFF781FB024652
:10466000BB6B9A61BB6B383303F5F6731846FFF7E3
:1046700077FB0246BB6B5A61BB6B97F857201A70E9
:104680000C4B1B8801339AB20A4B1A80094B1A88CB
:10469000BB6BDA80BB6B084A1A61B86BFFF784FB0F
:1046A000002318465837BD4680BD00BF52526141B5
:1046B00072724161A8150020CC15002080B588B029
:1046C00000AFF860B9601346FB71BB683B6107F14E
:1046D00010031846FFF7D1FCF861FB69002B01DAE3
:1046E0000B232BE0174AFB6952F82330BB61BB69EF
:1046F000002B05D0B869FFF757FBBB6900221A7081
:10470000FB68002B02D0FB6800221A70FA680D4982
:10471000FB6941F82320FB68002B02D0FB79012BB9
:1047200001D000230AE007F10C0107F10803002281
:104730001846FFF73DFD0346FB75FB7D1846203705
:10474000BD4680BDA415002080B592B000AFF860D2
:10475000B9607A6007F1280107F10C0300221846BE
:10476000FFF726FD034687F8473097F84730002BC0
:1047700040F09980BA6A7B681A60BB6A9A69BB6A22
:10478000DB69023B9A4204D8BB6A9A69BB681A602B
:1047900089E000233B64BB6A1B78012B28D10223EC
:1047A000FB63BB6A7B6107F11403F96B1846FFF7E3
:1047B00090FBF862FB6AB3F1FF3F03D1012387F856
:1047C000473063E0FB6A012B03D1022387F84730AF
:1047D0005CE0FB6A002B02D13B6C01333B64FB6B5A
:1047E0000133FB63BB6ADB69FA6B9A42DBD34DE0B2
:1047F000BB6ADB69FB63BB6A9B6ABB6300237B63A9
:1048000000233B637B6B002B13D1B86ABB6B5A1C34
:10481000BA631946FFF730FB034687F8473097F82D
:104820004730002B31D1BB6A38333B63BB6A9B896D
:104830007B63BB6A1B78022B0FD1386BFFF778FACA
:104840000346002B02D13B6C01333B643B6B0233CC
:104850003B637B6B023B7B6310E0386BFFF780FAB6
:10486000034623F07043002B02D13B6C01333B64C1
:104870003B6B04333B637B6B043B7B63FB6B013B18
:10488000FB63FB6B002BBDD100E000BFBB683A6C43
:104890001A60BB6A3A6C9A61BB6A1A79BB6A42F0C9
:1048A0000102D2B21A7197F8473018464837BD4610
:1048B00080BD000080B487B000AFF860B9601346D7
:1048C000FB710123FB750023BB751F4B5B7ADBB2C9
:1048D000002B31D11C4B5B7ADBB21A461A4B0021FC
:1048E0009954194B5B7ADBB2174A9B001344FA6860
:1048F0005A60154B5B7ADBB21A46134B1344FA79B4
:104900001A72114B5B7ADBB25A1CD1B20E4A517249
:10491000BB75BB7D3033DAB2BB681A70BB6801333C
:104920003A221A70BB6802332F221A70BB68033315
:1049300000221A700023FB75FB7D18461C37BD460C
:104940005DF8047B704700BFCC17002080B582B0B3
:1049500000AF78603960002239687868FFF7AAFFF5
:10496000034618460837BD4680BD0000014B186855
:10497000704700BF2400002070B50D4D0D4C641B26
:10498000A4100026A64209D10B4D0C4C00F08EFC61
:10499000641BA4100026A64205D170BD55F8043B47
:1049A00098470136EEE755F8043B98470136F2E7A1
:1049B0008453000884530008845300088853000877
:1049C00002440346934200D1704703F8011BF9E704
:1049D0000EB400B59CB01DAB029006906FF0004184
:1049E000094807910491094953F8042B059100687F
:1049F000019302A900F068F8029B00221A701CB013
:104A00005DF804EB03B07047240000200802FFFFAC
:104A10002DE9F0478E689E4282460C4690461F461E
:104A200038D88A8912F4906F32D025680969A5EBCD
:104A30000109656905EB450505EBD57501334B4467
:104A40006D109D4238BF1D46530531D5294600F0F3
:104A500063FB064650B90C23CAF80030A38943F023
:104A60004003A3814FF0FF30BDE8F08721694A463B
:104A700000F0BEFAA38923F4906343F08003A3817E
:104A8000266165614E44A5EB09052660A5603E469A
:104A9000BE4200D93E4620683246414600F0B6FA92
:104AA000A3689B1BA3602368334423600020DBE7DB
:104AB0002A4600F0A5FB06460028E1D121695046B0
:104AC00000F0BEFAC7E700002DE9F04F98468B8949
:104AD0001B069DB007460D4614460ED50B6963B9FB
:104AE000402100F019FB2860286120B90C233B60AD
:104AF0004FF0FF30D1E040236B6100230993202366
:104B00008DF82930CDF80C803023DFF8A8818DF89E
:104B10002A304FF0010923469A4613F8012B0AB1B7
:104B2000252AF9D1BAEB040B0BD05B462246294665
:104B30003846FFF76DFF013000F0AA80099A5A4409
:104B400009929AF80030002B00F0A28000234FF069
:104B5000FF32CDE905230AF1010A049307938DF88A
:104B600053301A935446052214F8011B5148FBF7A1
:104B70003FFB049AD8B9D00644BF20238DF85330A8
:104B8000110744BF2B238DF853309AF800302A2B9D
:104B900015D0079A544600204FF00A0C214611F810
:104BA000013B303B092B4ED9B0B1079214E0A0EB8A
:104BB000080309FA03F313430493A246D2E7039BC5
:104BC000191D1B680391002BBBBF5B4242F0020220
:104BD00007930793B8BF049223782E2B0CD16378E8
:104BE0002A2B35D1039B1A1D1B680392002BB8BFDB
:104BF0004FF0FF3302340593DFF8C8A02178032279
:104C00005046FBF7F5FA40B14023A0EB0A0003FA47
:104C100000F0049B03430134049314F8011B26485D
:104C20008DF828100622FBF7E3FA002838D0234B32
:104C30001BBB039B073323F0070308330393099B34
:104C40003344099367E70CFB02320C460120A5E7C9
:104C500000230134059319464FF00A0C204610F842
:104C6000012B303A092A03D9002BC5D00591C3E79F
:104C70000CFB012104460123F0E703AB00932A4615
:104C80000F4B04A93846AFF30080421C0646D6D12C
:104C9000AB895B063FF52CAF09981DB0BDE8F08FDE
:104CA00003AB00932A46064B04A9384600F07AF875
:104CB000EBE700BF48530008525300080000000013
:104CC000114A00084E5300082DE9F0471646994650
:104CD0008A680B69DDF820809342B8BF13463360C1
:104CE00091F8432007460C460AB10133336023682C
:104CF000990642BF336802333360256815F0060514
:104D000006D104F1190AE36832689B1AAB4226DC2B
:104D100094F84320131E226818BF012392062BD457
:104D200004F1430249463846C04701301ED023688B
:104D3000E568326803F00603042B08BFAD1AA368C8
:104D400022690CBF25EAE57500259342C4BF9B1A72
:104D5000ED1800261A34B5421AD1002008E00123CC
:104D6000524649463846C047013003D14FF0FF3024
:104D7000BDE8F0870135C6E7E1185A1C302081F8FC
:104D80004300224494F8451082F843100233C7E7E9
:104D90000123224649463846C0470130E6D0013655
:104DA000D9E700002DE9FF470F7E0C9D782F914633
:104DB00080460C469A4601F1430207D8622F0AD872
:104DC000002F00F0D880582F00F0A38004F1420596
:104DD00084F842703AE0A7F16303152BF6D801A1DD
:104DE00051F823F03D4E0008514E0008CD4D00080B
:104DF000CD4D0008CD4D0008CD4D0008514E0008A6
:104E0000CD4D0008CD4D0008CD4D0008CD4D00081A
:104E10005D4F0008814E00083F4F0008CD4D00084F
:104E2000CD4D00087F4F0008CD4D0008814E000891
:104E3000CD4D0008CD4D0008474F00082B681A1DC6
:104E40001B682A6004F1420584F842300123A3E084
:104E500020682968060601F104030AD50E682B6054
:104E6000002E03DA2D23764284F843305E480A236D
:104E700019E00E682B6010F0400F18BF36B2EFE754
:104E80002B682068191D2960010601D51E6802E003
:104E90004606FBD51E8854486F2F0CBF08230A23F3
:104EA000002184F843106568A560002DA2BF216829
:104EB00021F0040121600EB9002D4DD01546B6FB3E
:104EC000F3F103FB1167C75D05F8017D3746BB426F
:104ED0000E46F4D9082B0BD12368DE0708D52369C9
:104EE00061689942DEBF302305F8013C05F1FF35CA
:104EF000521B2261CDF800A04B4603AA2146404632
:104F0000FFF7E2FE01304CD14FF0FF3004B0BDE8B6
:104F1000F087354881F845702968236851F8046B9B
:104F200029601D0614D5DF0744BF43F0200323602A
:104F30001EB9236823F0200323601023B0E7236801
:104F400043F0200323607823284884F84530E3E7C2
:104F5000590648BFB6B2E6E71546BBE72B68266898
:104F60006169181D286035061B6801D5196002E0CB
:104F70007006FBD51980002323611546BAE72B681C
:104F80001A1D2A601D68626800212846FBF730F967
:104F900008B1401B606063682361002384F84330DC
:104FA000A8E723692A4649464046D0470130ABD09E
:104FB00023689B0713D4E068039B9842B8BF184648
:104FC000A4E70123324649464046D04701309BD0F2
:104FD0000135E36803995B1AAB42F2DCEBE700258D
:104FE00004F11906F5E700BF595300086A53000899
:104FF0000A44914200F1FF3300D1704710B511F817
:10500000014B03F8014F9142F9D110BD884210B510
:1050100001EB020402D98442234607D8431EA14271
:1050200008D011F8012B03F8012FF8E702440146DC
:105030008A4200D110BD13F8014D02F8014DF7E787
:1050400037B5002944D051F8043C0190002BA1F160
:105050000404B8BFE41800F013F91E4A019813685D
:1050600033B96360146003B0BDE8304000F00EB99E
:10507000A34208D9256861198B4201BF19685B6892
:1050800049192160EDE71A465B680BB1A342FAD9D2
:1050900011685518A5420BD1246821445418A34225
:1050A0001160E0D11C685B68536021441160DAE74D
:1050B00002D90C230360D6E7256861198B4204BF2F
:1050C00019685B68636004BF491921605460CAE7CE
:1050D00003B030BDD817002070B50E4E0C463168B5
:1050E000054611B900F0BCF830602146284600F0B2
:1050F000B7F8431C0AD0C41C24F00304A04207D014
:10510000211A284600F0ACF8013001D14FF0FF34ED
:10511000204670BDDC1700202DE9F041CD1C25F0A4
:10512000030508350C2D38BF0C25002D074601DB83
:10513000A94205D90C233B6000263046BDE8F0812A
:105140002E4E00F09DF833681C4634BB2946384685
:10515000FFF7C2FF431C04464DD134682646002E9B
:1051600040D123683146384604EB030800F078F854
:1051700080453AD1216803356D1A25F003050835BD
:105180000C2D38BF0C2529463846FFF7A5FF013006
:105190002BD023682B4423600EE02268521B1ED4C0
:1051A0000B2A16D96119A342256018BF596063689C
:1051B00008BF316062514B60384604F10B0600F0C5
:1051C00065F826F00706231DF21AB6D09B1BA350E4
:1051D000B3E76268A3420CBF32605A60ECE7234633
:1051E0006468B2E734467668B9E70C233B6038461A
:1051F00000F04CF8A1E72560DEE700BFD8170020DB
:105200002DE9F041804614460E4621B9BDE8F04133
:105210001146FFF781BF2AB9FFF712FF254628463E
:10522000BDE8F08100F038F88442074602D8B4EBBC
:10523000500F12D821464046FFF76EFF0546002862
:10524000EDD0BC422246314628BF3A46FFF7D0FE99
:1052500031464046FFF7F4FEE1E73546DFE7000060
:1052600038B5064D0023044608462B60FCF74AFC7F
:10527000431C02D12B6803B1236038BDE017002026
:10528000014800F011B800BFE4170020014800F009
:105290000CB800BFE417002051F8043C181F002B85
:1052A000BCBF0B58C018704770477047F8B500BFB7
:1052B000F8BC08BC9E467047F8B500BFF8BC08BCF7
:0452C0009E4670474F
:1052C400000000006572726F7220696E206D6F7548
:1052D4006E74696E672053442043617264200A002F
:1052E40053442043617264206D6F756E746564204D
:1052F4007375636365737366756C6C79200A00005B
:105304005344204341524420546F74616C205369C8
:105314007A653A200920256C750A000048656C6C92
:105324006F20576F726C640A0000000000000000D8
:105334000000000001020304060708090000000041
:1053440001020304232D302B2000686C4C00656699
:1053540067454647003031323334353637383941C2
:1053640042434445460030313233343536373839D8
:085374006162636465660000DC
:08537C0050B5FF7F01000000A5
:04538400C501000857
:04538800A101000877
:10538C00010000000024F4001000000001000000E7
:10539C00413B00085F3B00087D3B0008A53B000833
:1053AC00CD3B000828000020000000000000000099
:1053BC0000000000000000000000000000000000E1
:1053CC0000000000000000000000000000000000D1
:1053DC0000000000000000000000000000000000C1
:1053EC0000000000000000000000000000000000B1
:1053FC0000000000000000000000000000000000A1
:08540C00000000000000000098
:0400000508001B953F
:00000001FF
